:03000000020556A0
:0C055600787FE4F6D8FD7581200204B81F
:100003000000000000000000002F000000000700B7
:10001300070000147F147F1400242A7F2A12006231
:1000230064081323003649552250000005030000DD
:1000330000001C224100000041221C000014083E65
:1000430008140008083E0808000000A0600000082B
:10005300080808080000606000000020100804027F
:10006300003E5149453E0000427F4000004261513D
:100073004946002141454B31001814127F100027D7
:1000830045454539003C4A4949300001710905039A
:1000930000364949493600064949291E00003636CB
:1000A300000000005636000000081422410000142E
:1000B300141414140000412214080002015109060B
:1000C30000324959513E007C1211127C007F49498C
:1000D3004936003E41414122007F4141221C007FBD
:1000E30049494941007F09090901003E4149497ACB
:1000F300007F0808087F0000417F41000020404145
:100103003F01007F08142241007F40404040007FB0
:10011300020C027F007F0408107F003E4141413EF4
:10012300007F09090906003E4151215E007F09193C
:1001330029460046494949310001017F0101003F39
:100143004040403F001F2040201F003F4038403FB9
:10015300006314081463000708700807006151491D
:10016300454300007F41410000552A552A550000B0
:1001730041417F000004020102040040404040402E
:10018300000001020400002054545478007F4844C6
:10019300443800384444442000384444487F0038FD
:1001A3005454541800087E0901020018A4A4A47C26
:1001B300007F080404780000447D400000408084F0
:1001C3007D00007F102844000000417F4000007C38
:1001D30004180478007C0804047800384444443844
:1001E30000FC242424180018242418FC007C080490
:1001F300040800485454542000043F444020003C69
:100203004040207C001C2040201C003C4030403CEF
:10021300004428102844001CA0A0A07C004464547F
:080223004C44141414141414CB
:0404E3007F327E00E6
:1004E700EF4E6018D3EF9400EE9400400F7D0B7C25
:0C04F700BEDCFEDDFAEF1F70EB1E80E89B
:0105030022D5
:05052300D200E4F51216
:10052800C290A20092917F08C293E51225E0F512CD
:080538009294D293DFF2D290FD
:010540002298
:10044100AE07C200751230120528C20075121512CE
:100451000528D2008E12120528D2008B121205280F
:10046100C200751275120528D2008D12120528D20C
:0F04710000851112120528C20075125C020528C1
:10048000EB24E0FCEF2406FBED04F511120441E43B
:10049000FED20075F006ECA42403F582E5F03400EA
:1004A000F583E5822EF582E43583F583E493F51236
:0704B0001205280EBE06DA5A
:0104B7002222
:0A0356008F088D098B0A8A0B890CB1
:10036000E4F50DAB0AAA0BA90C120541E50DC39FDC
:100370005036E50894FA4005E4F5080509E509D387
:1003800094034003E4F509AB0AAA0BA90C850D827E
:100390007583001203FBFBAD09AF081204807406DD
:0803A0002508F508050D80BBDE
:0103A8002232
:10050400E4FCAD047511287BFFE4FF120441E4FE12
:0E0514001205231205230EBE80F60CBC04E473
:0105220022B6
:10022B0043921F5391E0C2927FC87E001204E7D223
:10023B00927FC87E001204E7C200751230120528A7
:10024B00C200751294120528C2007512D11205282E
:10025B001204E3C2007512AE1205281204E3C200A9
:10026B00751220120528D20075120B1205281204E4
:10027B00E3C200751281120528D20075120F120508
:10028B0028D200751203120528C20075123112050F
:10029B0028C2007512D7120528D20075129F1205BD
:1002AB0028C200751232120528120523D2007512CE
:1002BB0001120528D200751205120528C20075120D
:1002CB0051120528D2007512FB120528C2007512B7
:1002DB0030120528C2007512F0120528D2007512D3
:1002EB0010120528C2007512CA120528120523D256
:1002FB00007512A1120528D200751220120528C212
:10030B00007512BC120528120523C20075120C12BF
:10031B000528C2007512A6120528C20075127512A7
:10032B000528120523D200751228120528C2007564
:10033B001215120528120523D2007512FF1205287B
:0B034B00C2007512AF12052802050465
:1003A9005A656E6720487569204C4344205445536B
:1003B9005400323031382D30392D32350041424325
:1003C9004445464748494A4B4C4D4E4F505152536C
:1003D9005455565758595A61626364656667686926
:1003E9006A6B696D6E6F70717273747576777879EF
:0203F9007A0088
:1004B80012022B7BFF7A0379A9E4FDFF1203567B16
:1004C800FF7A0379BB7D01E4FF1203567BFF7A03B1
:0B04D80079C67D02E4FF12035680FE8F
:1003FB00BB010CE58229F582E5833AF583E02250B7
:10040B0006E92582F8E622BBFE06E92582F8E22200
:0D041B00E58229F582E5833AF583E493221A
:10054100E4FFFE120428600C0FEF70010E09E97040
:05055100F20A80EF2218
:10042800BB010689828A83E0225002E722BBFE02D2
:09043800E32289828A83E4932205
:00000001FF
