:100292005F063D2F666B7B0E7F6F7E7359377978D1
:1002A200FEFE016D3100406E54505C1C9F063D2FD6
:1002B200A6ABBB0EBFAFBEB39937B9B8FEFE016D98
:0802C2003100406E54505C1C39
:10032A007E00CFCDCFCECCCE120171AD07C2002256
:09033A00AE08AF097C000201715C
:100251007E80C2B20000E4FDEE30E704D2B5800238
:10026100C2B5C2B40000D2B400EE25E0FE0DBD045B
:10027100E7E4FDEF30E704D2B58002C2B5C2B400B5
:1002810000D2B400EF25E0FF0DBD08E7D2B20000B7
:01029100224A
:10020C007E05EEC43354E0FEE4FDEE30E704D2B5D7
:10021C008002C2B5C2B40000D2B400EE25E0FE0DDF
:10022C00BD03E7EF25E025E0FFE4FDEF30E704D266
:10023C00B58002C2B5C2B40000D2B400EF25E0FF15
:04024C000DBD06E7F7
:01025000228B
:1002F500E4FEEF30E704D2B58002C2B5C2B4000017
:0B030500D2B400EF25E0FF0EBE08E7B9
:0103100022CA
:1002CA00D2B2C2B4D2B5E4FF000FBF80FB7F521294
:1002DA0002517F30120251E4FF1202517F0A1202C8
:0B02EA00517F021202517F06020251F8
:0401C600AC07AB05D2
:1001CA00C2B2ECC394045019EC2C24FEFAFF1202BA
:1001DA000CEB9002929330000424808000FF1202FC
:1001EA00F5ECD394044018EC2C04FAFF12020CEB41
:1001FA009002AE9330000424408000FF1202F5D230
:01020A00B241
:01020B0022D0
:10035900C2B2E4FF12020CE4FDE4FF1202F50DBD86
:0403690011F7D2B204
:01036D00226D
:100311007FEB1203277FEB1203277FEB1203277F6B
:06032100EB1203277FEB45
:03032700DFFE22D4
:10034300AD07AC06ED1D70011C144C6008120311BF
:0603530012031180EF22ED
:100003001202CA1203590509E50970020508AE0870
:10001300FF7C037DE81201717F6412032A7F0112C2
:1000230001C67D6412033A7F0A12032A7F0212017A
:10003300C67D0A12033AC2007F031201C67F327ED5
:1000430000120343050BE50B7002050A120074123C
:10005300014E7002050A12007412014E7002050A65
:100063001200D2050BE50B7002050A1200D2020042
:010073000983
:10007400AE0AFF7C277D101201717E037FE8CFCD8D
:10008400CFCECCCE120171AD07C2007F051201C6DE
:10009400AE0AAF0B7C037DE81201717E007F64CF52
:1000A400CDCFCECCCE120171AD07C2007F061201B6
:1000B400C6AE0AAF0B7C007D641201717E007F0A1C
:1000C400CFCDCFCECCCE120171AD07C20022AE0A85
:1000D400FF7C277D101201717E037FE8CFCDCFCE48
:1000E400CCCE120171AD07C2007F051201C6AE0A63
:1000F400AF0B7C037DE81201717E007F64CFCDCF0E
:10010400CECCCE120171AD07C2007F061201C6AE7D
:100114000AAF0B7C007D641201717E007F0ACFCD93
:10012400CFCECCCE120171AD07C2007F071201C63B
:10013400AE0AAF0B7C007D0A120171C2007F081267
:1001440001C67F327E00120343227F071201C6AE2E
:100154000AAF0B7C007D0A120171C2007F081201F4
:0D016400C67F327E00120343050BE50B221F
:0300000002036E8A
:0C036E00787FE4F6D8FD758120020003C2
:10017100BC000BBE0029EF8DF084FFADF022E4CC72
:10018100F875F008EF2FFFEE33FEEC33FCEE9DEC3B
:10019100984005FCEE9DFE0FD5F0E9E4CEFD22ED81
:1001A100F8F5F0EE8420D21CFEADF075F008EF2FCB
:1001B100FFED33FD4007985006D5F0F222C398FDBC
:0501C1000FD5F0EA2259
:00000001FF
