:020000040800F2
:1000000090060020510C0008591A00085B1A0008DD
:100010005F1A0008631A0008671A00080000000051
:100020000000000000000000000000006B1A000843
:100030006D1A0008000000006F1A0008651800081B
:100040006B0C00086B0C00086B0C00086B0C0008B4
:100050006B0C00086B0C00086B0C00086B0C0008A4
:100060006B0C00086B0C00086B0C00086B0C000894
:100070006B0C00086B0C00086B0C00086B0C000884
:100080006B0C00086B0C00086B0C00086B0C000874
:100090006B0C00086B0C00086B0C00086B0C000864
:1000A0006B0C00086B0C00086B0C00086B0C000854
:1000B0006B0C00086B0C00086B0C00086B0C000844
:1000C0006B0C00086B0C00086B0C00086B0C000834
:1000D0006B0C00086B0C00086B0C00086B0C000824
:1000E0006B0C00086B0C00086B0C00086B0C000814
:1000F0006B0C00086B0C00086B0C00086B0C000804
:100100006B0C00086B0C00086B0C00086B0C0008F3
:100110006B0C00086B0C00086B0C00086B0C0008E3
:100120006B0C00086B0C00086B0C00086B0C0008D3
:1001300000F002F800F03AF80AA090E8000C8244BF
:100140008344AAF10107DA4501D100F02FF8AFF29C
:10015000090EBAE80F0013F0010F18BFFB1A43F0A5
:1001600001031847AC280000CC280000103A24BF37
:1001700078C878C1FAD8520724BF30C830C144BF0C
:1001800004680C607047000000230024002500264E
:10019000103A28BF78C1FBD8520728BF30C148BFEA
:1001A0000B6070471FB51FBD10B510BD01F063FC9B
:1001B0001146FFF7F7FF01F05FFB01F081FC03B48C
:1001C000FFF7F2FF03BC01F085FC70B505460E4653
:1001D000002406E0601CC0B20446C82801DD0020EF
:1001E00070BD0221284601F08EFA0028F2D0314677
:1001F000284601F035FA002406E0601CC0B204462F
:10020000C82801DD0020EBE70121284601F07BFA38
:100210000028F2D0284601F025FAC0B2E0E700003D
:1002200070B504460D462DB101224021FE4800F074
:10023000ACFE04E000224021FB4800F0A6FE0022B4
:100240004FF48051F94800F0A0FE2146F848FFF72E
:10025000BCFF01221103F54800F097FE0122402166
:10026000F14800F092FE70BD70B506460C4615468A
:10027000602E01DA402C00DB70BD00211520FFF755
:10028000CFFF00213046FFF7CBFF00215F20FFF7B3
:10029000C7FF00217520FFF7C3FF00212046FFF7AD
:1002A000BFFF00213F20FFF7BBFF28120121FFF70E
:1002B000B7FFE8B20121FFF7B3FF00BFDCE72DE98C
:1002C000FF5F04460D4616461F46301B0390781B01
:1002D00002900398002801DB014600E041428A4673
:1002E000B44201DA012001E04FF0FF3001900298A2
:1002F000002801DB014600E04142C1F10008BD4297
:1003000001DA012001E04FF0FF3000900AEB08090C
:10031000602C05DA402D03DA602E01DA402F01DB74
:10032000BDE8FF9F00BF294620460E9AFFF79CFFBD
:100330004FEA490BC34506DBB44200D10DE0C1448E
:1003400001982044C4B2D345EDDCBD4200D104E0A5
:10035000D14400982844C5B2E5E700BF00BFDFE7FD
:100360002DE9F04707460C4616469846A0193F2847
:1003700001DAA01900E03F208146602F01DA402C0D
:1003800001DBBDE8F087254606E0E9B24246384683
:10039000FFF76AFF681C85B24D45F6DB00BFF0E74A
:1003A0002DE9F04704460F4616469846A0195F28E7
:1003B00001DAA01900E05F208146602C01DA402FAD
:1003C00001DBBDE8F087254606E0E8B24246394643
:1003D000FFF74AFF681C85B24D45F6DB00BFF0E72A
:1003E0002DE9F04105460E4617461C46DDF81880FB
:1003F000602D01DA402E01DBBDE8F08143463A462C
:1004000031462846FFF7CCFF3019C1B243463A4681
:100410002846FFF7C5FF4346224631462846FFF7E8
:100420009FFF611CCAB2E919C8B243463146FFF7C3
:1004300097FF00BFE0E72DE9F04705460E469046DE
:100440009946DDF820A0602D01DA402E01DBBDE8E1
:10045000F08700240EE0002708E03219D1B2EA1933
:10046000D0B25246FFF700FF781C87B24745F4DB55
:10047000601C84B24C45EEDB00BFE8E72DE9F05F7D
:1004800006460F4691469B46C9F1000400254FEAF7
:100490004900C0F10208602E01DA402F01DBBDE8FF
:1004A000F09F00BF7A19D1B2321BD0B25A46FFF783
:1004B000DBFE7A19D1B23219D0B25A46FFF7D4FE18
:1004C0007A1BD1B23219D0B25A46FFF7CDFE7A1B51
:1004D000D1B2321BD0B25A46FFF7C6FEC246AA4579
:1004E0000BDC681C0546012101EB40008044EC4216
:1004F00003D1A24501DC4FF0000AA24505DD601CD6
:100500000446012101EB40008044002CCADD00BFFD
:10051000C5E72DE9F05F07460C4690461D46A34609
:10052000602F01DA402C01DBBDE8F09F002637E0A8
:100530000C2D09D1A8F1200000EB40003D4901EB52
:10054000800010F806A008E0102D06D1A8F12000C8
:10055000394901EB001010F806A04FF0000919E02E
:100560001AF0800F04D0214638460A9AFFF77CFE25
:100570004FEA4A604FEA106A601CC4B2A4EB0B0059
:10058000A84203D15C46781CC7B206E009F101001D
:1005900000F0FF09B9F1080FE2DB00BF701CC6B222
:1005A000AE42C5DB00BFBFE710B50246012000E048
:1005B00050430B00A1F10104E1B2F9D110BD2DE9C6
:1005C000FE4F0646894692461F46DDE90C5B002039
:1005D0000290602E02DAB9F1400F01DBBDE8FE8F18
:1005E000002442E0381B401EC1B20A20FFF7DCFFA6
:1005F000BAFBF0F00A21B0FBF1F201FB12080298FD
:1006000008BB781EA0421EDDB8F1000F19D105EB22
:10061000D571491001FB0461C8B22B46202249461E
:10062000CDE900B50AE0000000100140000C0140D7
:1006300000380040E21A0008561F0008FFF769FF63
:1006400011E00120029005EBD571491001FB046116
:10065000C8B208F13001CAB22B464946CDE900B50F
:10066000FFF757FF00BF601CC4B2BC42BADB00BF3B
:10067000B4E770B5064600240CE0002506E0E1B2C0
:10068000E8B23246FFF7F0FD681C85B2602DF6DB5C
:10069000601C84B2402CF0DB70BD2DE9F8430546A8
:1006A0000E4617461C46DDF82080602D01DA402EEC
:1006B00001DBBDE8F88321E004EBD4714910C1F1FE
:1006C0006001A9420BDA00253019C6B2C4F140001E
:1006D000B04204DA002005460646FFF7CAFFCDF80F
:1006E00000803A78234631462846FFF712FF20461D
:1006F00004EBD07105EB6101CDB27F1C3878002886
:10070000DAD100BFD5E72DE9F05F06460C46174663
:1007100098464FF0000AA346002529E0A7F13000D3
:100720009E4901EB401010F805A04FF0000919E0B8
:100730001AF0800F04D0424621463046FFF794FD60
:100740004FEA4A604FEA106A601CC4B2A4EB0B0087
:10075000102803D15C46701CC6B206E009F1010006
:1007600000F0FF09B9F1080FE2DB00BF681CC5B259
:10077000202DD3DBBDE8F09F2DE9F05F06460C4647
:10078000174698464FF0000AA346002529E0A7F136
:100790003000834901EB801010F805A04FF00009EC
:1007A00019E01AF0800F04D0424621463046FFF788
:1007B0005BFD4FEA4A604FEA106A601CC4B2A4EBCA
:1007C0000B00202803D15C46701CC6B206E009F17C
:1007D000010000F0FF09B9F1080FE2DB00BF681C5F
:1007E000C5B2402DD3DBBDE8F09F2DE9F05F074691
:1007F000884691461E46DDF828A0F01DC11700EB83
:100800005171C1F3CF0B00251CE0002416E0E11765
:1008100004EB5171C91005FB0B92515C04F0070306
:1008200080221A41114207D008EB0502D1B23A19D1
:10083000D0B20B9AFFF718FD601C84B2B442E6DB1D
:10084000681C85B25545E0DBBDE8F09F10B501227C
:100850000421544800F099FB01221103524800F092
:1008600094FB0021AE20FFF7DBFC00218120FFF785
:10087000D7FC0021FF20FFF7D3FC00218220FFF7E7
:10088000CFFC0021FF20FFF7CBFC00218320FFF7E6
:10089000C7FC0021FF20FFF7C3FC00218720FFF7E2
:1008A000BFFC00210620FFF7BBFC00218A20FFF7D8
:1008B000B7FC00216420FFF7B3FC00218B20FFF779
:1008C000AFFC00217820FFF7ABFC00218C20FFF764
:1008D000A7FC00216420FFF7A3FC0021A020FFF764
:1008E0009FFC00217220FFF79BFC0021A120FFF755
:1008F00097FC00210846FFF793FC0021A220FFF798
:100900008FFC00210846FFF78BFC0021A420FFF795
:1009100087FC0021A820FFF783FC00213F20FFF780
:100920007FFC0021AD20FFF77BFC00218E20FFF72C
:1009300077FC0021B020FFF773FC00210846FFF789
:100940006FFC0021B120FFF76BFC00213120FFF785
:1009500067FC0021B320FFF763FC0021F020FFF7C4
:100960005FFC0021BB20FFF75BFC00213A20FFF772
:1009700057FC0021BE20FFF753FC00213E20FFF76B
:100980004FFC00212E20FFF74BFC0021AF20FFF78A
:1009900047FC0020FFF76DFE10BD00004625000853
:1009A000A626000800100140000C014010B50446C6
:1009B0006FF0040000F0BCF92B48B4FBF0F02B49B9
:1009C00008700846007800EB4001C1EBC0104FF6FC
:1009D000FF7101EAC0002649088010BD0146234A84
:1009E00012784A434FF0E0235A6100229A611A4676
:1009F000126942F001021A6100BF4FF0E022106953
:100A000010F0010F02D010F4803FF6D04FF0E0223A
:100A1000126922F001024FF0E0231A6100229A616C
:100A200070470146124A12884A434FF0E0235A6148
:100A300000229A611A46126942F001021A6100BF4F
:100A40004FF0E022106910F0010F02D010F4803F47
:100A5000F6D04FF0E022126922F001024FF0E023BD
:100A60001A6100229A61704700127A00000000208B
:100A7000020000200CB50020019000906B48006837
:100A800040F480306949086000BF6848006800F49D
:100A9000003000900198401C0190009818B901980E
:100AA000B0F5A06FF1D16148006810F4003F02D0AA
:100AB0000120009001E0002000900098012842D120
:100AC0005B48006840F0100059490860084600681B
:100AD00020F0030008600846006840F0020008604B
:100AE0005248406851494860084640684860084696
:100AF000406840F4806048600846406820F47C10FC
:100B000048600846406840F4E810486008460068BD
:100B100040F08070086000BF4448006810F0007F1B
:100B2000FAD04248406820F0030040494860084637
:100B3000406840F00200486000BF3C48406800F058
:100B40000C000828F9D10CBD10B5FFF793FF10BDBC
:100B500010B53648006840F0010034490860084686
:100B600040683449084031494860084600683249C5
:100B700008402E4908600846006820F4802008607C
:100B80000846406820F4FE0048604FF41F0088606B
:100B9000FFF7DAFF4FF000602849086010BD10B57C
:100BA000002100200022214B5B6803F00C0121B1E1
:100BB000042906D0082928D107E0214B214C2360C5
:100BC00027E01F4B1F4C236023E0184B5B6803F4A6
:100BD0007010164B5B6803F48032022303EB9040E5
:100BE00022B9194B4343174C23600DE00F4B5B6850
:100BF00013F4003F04D0144B4343124C236003E032
:100C00000F4B43430F4C236003E00D4B0D4C23600F
:100C100000BF00BF054B5B68C3F303130B4CE15CE3
:100C2000084B1B68CB40074C236010BD00100240EE
:100C3000002002400000FFF8FFFFF6FE08ED00E094
:100C400000127A000400002000093D000800002086
:100C50000948804709480047FEE7FEE7FEE7FEE750
:100C6000FEE7FEE7FEE7FEE7FEE7FEE7044805498C
:100C7000054A064B70470000510B0008310100087F
:100C8000900000209006002090020020900200209A
:100C900031490143314A1160704770B5002100238A
:100CA0000F22C4780CB32D4C246804F4E064C4F51E
:100CB000E064210AC1F10403CA40447804FA03F154
:100CC0008478144021430901254C0678A155047805
:100CD00004F01F050124AC4005786D114FF0E026AB
:100CE00006EB8505C5F8004109E0047804F01F050E
:100CF0000124AC401B4D0678761145F8264070BDA6
:100D0000194A0A400243154B1B1F1A60704739B13C
:100D1000124A121D12680243104B1B1D1A6006E096
:100D20000E4A121D126882430C4B1B1D1A6070473D
:100D3000042808D14FF0E021096941F004014FF087
:100D4000E022116107E04FF0E021096921F0040180
:100D50004FF0E022116170470000FA050CED00E051
:100D600000E400E080E100E080FFFF1F10B50446D2
:100D7000CA48844208D10121042000F027FB002149
:100D8000042000F023FB46E0C548844208D101213D
:100D9000082000F01BFB0021082000F017FB3AE0C0
:100DA000C048844208D10121102000F00FFB00212F
:100DB000102000F00BFB2EE0BB48844208D101213B
:100DC000202000F003FB0021202000F0FFFA22E0A9
:100DD000B648844208D10121402000F0F7FA0021F2
:100DE000402000F0F3FA16E0B148844208D1012116
:100DF000802000F0EBFA0021802000F0E7FA0AE002
:100E0000AC48844207D10121801500F0DFFA0021AF
:100E1000A01500F0DBFA10BD10B50121084600F066
:100E2000D5FA0021012000F0D1FA10BD2DE9F041E2
:100E3000024600250026002000230024002791F808
:100E400003C00CF00F0591F803C01CF0100F03D085
:100E500091F802C04CEA050591F800C0BCF1000F02
:100E600031D0146800202BE04FF0010C0CFA00F395
:100E7000B1F800C00CEA03069E4220D183004FF077
:100E80000F0C0CFA03F7BC4305FA03FC4CEA04040C
:100E900091F803C0BCF1280F06D14FF0010C0CFAF9
:100EA00000FCC2F814C00AE091F803C0BCF1480F7E
:100EB00005D14FF0010C0CFA00FCC2F810C0401C28
:100EC0000828D1D31460B1F800C0BCF1FF0F34DDA5
:100ED000546800202EE000F1080C4FF0010808FAD9
:100EE0000CF3B1F800C00CEA03069E4221D1830046
:100EF0004FF00F0C0CFA03F7BC4305FA03FC4CEA65
:100F0000040491F803C0BCF1280F05D100F1080CCE
:100F100008FA0CF8C2F8148091F803C0BCF1480F2D
:100F200007D100F1080C4FF0010808FA0CF8C2F8DC
:100F30001080401C0828CED35460BDE8F0814FF6E5
:100F4000FF710180022181700421C1707047024647
:100F5000002093680B4201D0012000E00020704780
:100F60000146886880B2704702460020D3680B4271
:100F700001D0012000E0002070470146C86880B21F
:100F8000704701617047416170470AB1016100E03B
:100F900041617047C16070474FF480320A438261FB
:100FA0008161826182698269704702460020424BFA
:100FB00018684FF68073184040EA021008433E4B11
:100FC000186070473D49C8617047F0B50A46002374
:100FD00000240021002500F00046B6F1004F02D1A8
:100FE000354EF16901E0344E7168C0F3034583B2B8
:100FF00000F44016B6F5401F08D121F070612E4E66
:10100000766826F070662C4F7E6012E000F4801641
:10101000B6F5801F06D1032606FA05F4A14341F078
:10102000706106E0460D360103FA06F6B14341F061
:10103000706122B1460D360103FA06F6314300F025
:101040000046B6F1004F02D11B4EF16101E01A4E8D
:101050007160F0BD30B500228B071C0F0F2303FA1F
:1010600004F2154B08338C1053F824309343124C80
:1010700008348D1044F8253023468C1053F8243062
:101080008C07240F00FA04F423430B4C08348D1012
:1010900044F8253030BD0A49086070470008014017
:1010A000000C0140001001400014014000180140F4
:1010B000001C0140002001400000014000002042CF
:1010C000DC002042DD48006840F00100DB49086098
:1010D00008464068DA490840D84948600846006830
:1010E000D8490840D54908600846006820F48020A7
:1010F00008600846406820F4FE0048604FF41F0076
:1011000088607047CD49096821F48031CB4A11606D
:101110001146096821F480211160B0F5803F03D0A9
:10112000B0F5802F0ED106E0C449096841F4803142
:10113000C24A116007E0C149096841F4A021BF4AD1
:10114000116000E000BF00BF704710B501460022EB
:10115000002300204A11012A02D1B84C236806E07E
:10116000022A02D1B54C236A01E0B44C636A01F053
:101170001F02012494401C4201D0012000E0002005
:1011800010BD38B5002000900024002500BF31209C
:10119000FFF7DBFF05460098401C00900098B0F573
:1011A000A06F01D0002DF2D03120FFF7CEFF08B1A3
:1011B000012400E00024204638BD014600209F4A5B
:1011C000106820F0F80040EAC100106070479E49A6
:1011D0000860704702460020984B586820F47C1045
:1011E00042EA01031843954B5860704796490866D8
:1011F000704701460020914A506820F003000843E0
:10120000506070478D48406800F00C007047014600
:1012100000208A4A506820F0F00008435060704770
:1012200001460020854A506820F4E0600843506081
:10123000704701460020814A506820F4605040EA1F
:10124000C1005060704729B17C4A527A02437B4BFF
:101250005A7204E0794A527A8243784B5A72704744
:101260007A490860704701460020744A506820F4AB
:1012700040400843506070470021754A11706F4A22
:1012800082F82010012802D0042808D103E00121AF
:101290006F4A117004E005216D4A117000E000BF33
:1012A00000BF70476B49086070476449096A014391
:1012B000624A11627047674944390860704730B527
:1012C00000210022002400235C4D6D6805F00C0114
:1012D00021B1042905D0082923D105E05E4D056020
:1012E00022E05D4D05601FE0544D6D6805F47012FD
:1012F000524D6D6805F48034022505EB92421CB90D
:10130000564D554305600BE04C4D6D6815F4003F9C
:1013100003D0524D5543056002E04F4D55430560E3
:1013200002E04D4D056000BF00BF444D6D6805F003
:10133000F00109094A4D6B5C0568DD4045603F4D91
:101340006D6805F4E061090A454D6B5C4568DD4058
:1013500085603A4D6D6805F46051C90A404D6B5C7B
:101360004568DD40C560354D6D6805F44041890B29
:101370003C4D6B5CC568B5FBF3F5056130BD29B12B
:101380002E4A526902432D4B5A6104E02B4A52699E
:1013900082432A4B5A61704729B1284A9269024315
:1013A000264B9A6104E0254A92698243234B9A6155
:1013B000704729B1214AD2690243204BDA6104E027
:1013C0001E4AD26982431D4BDA61704729B11B4A1C
:1013D000D2680243194BDA6004E0184AD2688243AB
:1013E000164BDA60704729B1144A12690243134B55
:1013F0001A6104E0114A12698243104B1A61704766
:1014000014494039086070470F49C86470470B4958
:10141000C87170470948406A40F0807007494862C7
:10142000704701460020054A92680A4201D0012017
:1014300000E00020704701498872704700100240A8
:101440000000FFF8FFFFF6FE00004242D8004242D3
:10145000201002408004424200127A0000093D0040
:10146000180000202800002010B50446BE48844221
:1014700008D101218014FFF7A9FF0021A014FFF774
:10148000A5FF16E0B948844208D101210014FFF7F6
:10149000AAFF00212014FFF7A6FF0AE0B448844207
:1014A00007D10121C013FFF79EFF0021E013FFF7D2
:1014B0009AFF10BD10B50022028802F441520B8839
:1014C0004C8823438C882343CC8823430C892343B3
:1014D0004C8923438C892343CC8923431A430280BC
:1014E000838B4FF2FF74234083830B8A038210BDEA
:1014F0002DE9F04F85B005460C464FF00009022754
:101500004FF000084FF0010B0026B246A88B4FF2B7
:1015100040010840A88302202884B5F81C90A068E8
:10152000022801D100BF38E0A08810B94FF0010BAC
:1015300001E04FF0020B8D48854200D100E000BF72
:101540006846FFF7BCFEDDF800A0E088B0F5007F3C
:101550000AD14FEA1A2000EB80004000A168B0FBDE
:10156000F1F0401D86B20BE04FEA4B10BAFBF0F0F1
:1015700000EB80004000A168B0FBF1F0401D86B296
:101580000A20B6FBF0F606F00108A6EB0800C0F34F
:101590004F074FF6FF7000EA0828022F01DBFF2FEC
:1015A00002DD02274FF00008E08840EA08003843D7
:1015B0002884A088A18908436188084321880843BA
:1015C00040F4006040EA0909A5F81C9005B0BDE8A8
:1015D000F08F0021018041808180C18001814181A3
:1015E0008181C181072101827047002101804180F2
:1015F0008180C1800221816000218181704721B1F9
:10160000028842F04002028004E002884FF6BF7375
:101610001A400280704721B1828B42F4806282833B
:1016200004E0828B4FF6FF331A408283704730B557
:10163000002400230C110125A540ABB21AB1858806
:101640001D43858002E085889D43858030BD1AB1A9
:1016500083880B43838002E083888B4383807047B9
:1016600081817047014688897047A1F57E42FF3A23
:1016700004D0028842F48072028004E002884FF6AF
:10168000FF631A400280704721B1828842F0040251
:10169000828004E082884FF6FB731A408280704794
:1016A00002884FF2FF731A40028002880A430280C8
:1016B0007047018841F480510180704721B1028850
:1016C00042F40052028004E002884DF6FF731A4093
:1016D0000280704702460020012901D0108B00E0F3
:1016E000908A70470146088A7047B1F5804F04D14F
:1016F000028842F48042028004E002884BF6FF73C5
:101700001A40028070470246002013890B4201D024
:10171000012000E000207047CA4302817047F0B505
:101720000246002000240023002501F00F070126B7
:10173000BE40B4B20B1101269E40B3B2968806EAB1
:1017400003051689264202D00DB1012000E00020D9
:10175000F0BD10B5002201F00F040123A3409AB29E
:10176000D343038110BD0000003001400038004029
:10177000003C004010B5FFF769F810BD00B585B01A
:1017800001218803FFF715FE0020ADF800004FF49B
:101790008270ADF802000020ADF804000220ADF820
:1017A00006000120ADF808004002ADF80A00102044
:1017B000ADF80C000020ADF80E000720ADF81000C9
:1017C00069462948FFF776FE01212748FFF717FFF2
:1017D00005B000BD08B501211D20FFF7DDFD012189
:1017E0002248FFF7F2FB4FF42040ADF80000032041
:1017F0008DF8020018208DF8030069461C48FFF799
:1018000015FB41F24400ADF8000003208DF8020002
:1018100010208DF8030069461648FFF707FB4FF4C8
:101820008050ADF8000003208DF8020010208DF8E4
:10183000030069460E48FFF7F9FA08BD10B5FFF737
:10184000C9FFFFF79BFF10BD00B585B06846FFF7E5
:1018500036FD0198FFF7AAF8FFF7F0FFFFF78AFFC0
:1018600005B000BD704700000038004000023000A5
:10187000000C0140001001401CB5FFF7E5FF4FF4DC
:101880007840FEF7F6FE4FF47A70FFF7CAF84FF48F
:101890007A70FFF7C6F84FF4FC60FEF7EAFE4FF4EB
:1018A0007A70FFF7BEF84FF47A70FFF7BAF81F208E
:1018B000FEF7DFFE4FF47A70FFF7B3F84FF47A705B
:1018C000FFF7AFF80020FEF7D4FE4FF6FF700C23B1
:1018D00047A2002100900A20FEF7DFFE4FF6E070DD
:1018E0000C2347A2102100900020FEF7D6FE4FF4F3
:1018F000FC600C234CA2342100901620FEF7CDFE94
:101900004FF47A70FFF78DF84FF47A70FFF789F88B
:101910000020FEF7AEFE4FF6E07008211023454A86
:10192000CDE9001002210020FEF75FFF4FF6E070C6
:1019300008211023404ACDE9001002211320FEF7B0
:1019400054FF4FF6E07008210B463C4ACDE90010E9
:1019500002212620FEF749FF4FF6E07008210B46D2
:10196000374ACDE9001002213420FEF73EFF4FF642
:10197000E07008210B46334ACDE9001002214220D5
:10198000FEF733FF4FF6E070082110232E4ACDE911
:10199000001002215020FEF728FF1F2332221021C1
:1019A0000820FEF7E9FE1F23332210211820FEF73E
:1019B000E3FE4FF478433A2210212820FEF7DCFEA4
:1019C0001F23352210213820FEF7D6FE1F23362292
:1019D00010214820FEF7D0FE4FF4FC6010231BA21C
:1019E000302100900920FEF758FE00BFFEE70000FE
:1019F000302E3935696E6368204F4C454400000035
:101A00005468697320697320612064656D6F206676
:101A10006F722053534431333331204F4C454420AF
:101A2000626F61726421000057617665536861726C
:101A300065000000C6290008D6290008F62900081C
:101A4000FE290008062A0008E62900083230313550
:101A50002D30312D32370000704700BFFEE700BF48
:101A6000FEE700BFFEE700BFFEE770477047704724
:101A7000704770477047754600F028F8AE4605007D
:101A80006946534620F00700854618B020B5FFF799
:101A9000EDF8BDE820404FF000064FF000074FF092
:101AA00000084FF0000B21F00701AC46ACE8C0097C
:101AB000ACE8C009ACE8C009ACE8C0098D46704785
:101AC0000446AFF300802046FEF779FB00487047DC
:101AD0002C00002001491820ABBEFEE726000200C2
:101AE000704700000000000000000000000000003F
:101AF00000003F40000000000000000030004000F7
:101B000030004000000009000BC03D000BC03D004C
:101B1000090018C024407FE02240318000001800F6
:101B200024C01B000D803240018003801C402740F0
:101B30001C80074000401000600000000000000012
:101B400000000000000000001F8020404020000036
:101B5000402020401F8000000000090006001F8078
:101B6000060009000000040004003F800400040097
:101B700000000010006000000000000000000400F1
:101B80000400040004000400000000000040000005
:101B9000000000000000002001C0060038004000E6
:101BA00000001F802040204020401F8000000000D7
:101BB00010403FC000400000000018C021402240FB
:101BC00024401840000010802040244024401B8006
:101BD000000002000D0011003FC0014000003C80E9
:101BE000244024402440238000001F8024402440BF
:101BF0003440038000003000200027C0380020005F
:101C000000001B802440244024401B8000001C0056
:101C100022C0224022401F80000000000000084037
:101C20000000000000000000000004600000000050
:101C30000000000004000A0011002080404009005C
:101C40000900090009000900000000004040208050
:101C500011000A000400180020002340240018008E
:101C600000001F802040274029401F400000004006
:101C700007C039000F0001C0004020403FC0244091
:101C800024401B8000001F802040204020403080E6
:101C9000000020403FC0204020401F800000204026
:101CA0003FC024402E4030C0000020403FC02440B0
:101CB0002E00300000000F001080204022403380B2
:101CC000020020403FC0040004003FC020402040EC
:101CD00020403FC020402040000000602020202005
:101CE0003FC02000200020403FC024400B0030C0F7
:101CF000204020403FC020400040004000C03FC086
:101D00003C0003C03C003FC0000020403FC00C40EE
:101D100023003FC020001F802040204020401F8023
:101D2000000020403FC024402400180000001F8015
:101D30002140214020E01FA0000020403FC024405F
:101D4000260019C0004018C02440244022403180A1
:101D50000000300020403FC0204030000000200044
:101D60003F80004000403F80200020003E0001C036
:101D7000070038002000380007C03C0007C03800CA
:101D80000000204039C0060039C02040000020007B
:101D9000384007C0384020000000304021C02640B5
:101DA000384020C00000000000007FE040204020BC
:101DB0000000000070000C000380004000000000E4
:101DC000402040207FE00000000000002000400094
:101DD0002000000000000010001000100010001093
:101DE00000100000000040000000000000000000A3
:101DF00002800540054003C0004020003FC0044071
:101E000004400380000000000380044004400640BA
:101E1000000000000380044024403FC00040000058
:101E200003800540054003400000000004401FC03F
:101E3000244024402000000002E0055005500650D8
:101E4000042020403FC00440040003C000400000C4
:101E5000044027C0004000000000001000100410E3
:101E600027E00000000020403FC00140070004C000
:101E70000440204020403FC000400040000007C018
:101E8000040007C0040003C00000044007C0044071
:101E9000040003C0004000000380044004400380AD
:101EA0000000041007F0045004400380000000000C
:101EB00003800440045007F00010044007C00240B3
:101EC000040004000000000006400540054004C076
:101ED0000000000004001F800440004000000400D7
:101EE00007800040044007C000400400070004C011
:101EF000018006000400060001C0070001C00600C2
:101F00000000044006C0010006C0044000000410A8
:101F1000071004E00180060004000000044005C032
:101F20000640044000000000000004007BE0402068
:101F30000000000000000000FFF0000000000000B2
:101F400040207BE0040000000000400080004000D2
:101F50002000200040000000000000000000000001
:101F60000000000000000000000000001FCC000C7A
:101F700000000000000000000800300060000800C1
:101F8000300060000000022003FC1E20022003FC41
:101F90001E200220000000000E1811043FFF1084D4
:101FA0000C78000000000F0010840F3800C0077884
:101FB00018840078000000780F8410C411240E9853
:101FC00000E40084000808006800700000000000C1
:101FD00000000000000000000000000007E01818EA
:101FE000200440020000000040022004181807E00E
:101FF0000000000000000240024001800FF001805C
:102000000240024000000080008000800FF8008045
:102010000080008000000001000D000E00000000A4
:1020200000000000000000000080008000800080B0
:102030000080008000800000000C000C0000000008
:102040000000000000000000000600180060018091
:10205000060018002000000007F008081004100413
:10206000080807F000000000080408041FFC000432
:1020700000040000000000000E0C10141024104496
:1020800011840E0C000000000C181004110411043F
:1020900012880C700000000000E0032004240824D3
:1020A0001FFC0024000000001F981084110411047C
:1020B000108810700000000007F008881104110457
:1020C00018880070000000001C00100010FC1300B5
:1020D0001C001000000000000E3811441084108411
:1020E00011440E38000000000700088C1044104412
:1020F000088807F00000000000000000030C030C3B
:1021000000000000000000000000000101060000C7
:1021100000000000000000000080014002200410C8
:1021200008081004000002200220022002200220E1
:102130000220022000000000100408080410022001
:1021400001400080000000000E001200100C106C16
:1021500010800F00000003E00C1813E4142417C4CF
:10216000082807D000000004003C03C41C400740BE
:1021700000E4001C000410041FFC110411041104ED
:102180000E880070000003E00C1810041004100406
:1021900010081C10000010041FFC10041004100490
:1021A000080807F0000010041FFC1104110417C4F4
:1021B00010040818000010041FFC1104110017C0BF
:1021C00010000800000003E00C1810041004104474
:1021D0001C780040000010041FFC10840080008068
:1021E00010841FFC10040000100410041FFC1004D5
:1021F00010040000000000030001100110011FFE88
:1022000010001000000010041FFC1104038014646F
:10221000181C1004000010041FFC1004000400042B
:102220000004000C000010041FFC1F0000FC1F0035
:102230001FFC1004000010041FFC0C04030000E04D
:1022400010181FFC100007F00808100410041004F8
:10225000080807F0000010041FFC10841080108094
:1022600010800F00000007F0081810241024101C24
:10227000080A07F2000010041FFC1104110011C02D
:1022800011300E0C000400000E1C11041084108488
:1022900010441C3800001800100010041FFC10042B
:1022A00010001800000010001FF8100400040004C3
:1022B00010041FF8100010001E0011E0001C007038
:1022C00013801C0010001FC0103C00E01F0000E045
:1022D000103C1FC000001004180C163401C001C0CF
:1022E0001634180C100410001C00130400FC130416
:1022F0001C00100000000804101C1064108413045B
:102300001C04101800000000000000007FFE4002C6
:10231000400240020000000030000C00038000601A
:10232000001C0003000000004002400240027FFE4B
:1023300000000000000000000000200040004000FD
:102340004000200000000001000100010001000128
:1023500000010001000100004000400020000000DA
:102360000000000000000000009801240144014426
:10237000014400FC000410001FFC0088010401045B
:102380000088007000000000007000880104010453
:1023900001040088000000000070008801040104AE
:1023A00011081FFC0004000000F80144014401442E
:1023B000014400C800000000010401040FFC1104E6
:1023C000110411001800000000D60129012901297B
:1023D00001C90106000010041FFC00840100010077
:1023E000010400FC000400000104190419FC0004AD
:1023F00000040000000000000003000101011901B9
:1024000019FE0000000010041FFC0024004001B46D
:10241000010C010400000000100410041FFC000463
:10242000000400000000010401FC0104010001FCA3
:102430000104010000FC010401FC00840100010012
:10244000010400FC0004000000F801040104010480
:10245000010400F80000010101FF008501040104EE
:102460000088007000000000007000880104010472
:10247000010501FF00010104010401FC00840104C5
:10248000010001800000000000CC0124012401248F
:1024900001240198000000000100010007F8010478
:1024A000010400000000010001F800040004000421
:1024B000010801FC0004010001800170000C001003
:1024C00001600180010001F0010C003001C000300A
:1024D000010C01F0010000000104018C0074017086
:1024E000018C01040000010101810171000E00183E
:1024F00001600180010000000184010C01340144ED
:102500000184010C00000000000000000000010038
:102510003EFC400240020000000000000000FFFFFF
:102520000000000000000000400240023EFC0100EC
:1025300000000000000000006000800080004000FB
:1025400040002000200000003FFC3FFC300C300C1D
:10255000300C300C300C300C300C300C300C300C9B
:102560003FFC3FFC000000000000000000000000F5
:1025700000000000300030003FFC3FFC0000000085
:10258000000000000000000039FC39FC318C318C67
:10259000318C318C318C318C318C318C318C318C53
:1025A0003F8C3F8C00000000381C381C318C318C73
:1025B000318C318C318C318C318C318C318C318C33
:1025C0003FFC3FFC000000003F803F800180018015
:1025D00001800180018001800180018001800180F3
:1025E0003FFC3FFC000000003FBC3FBC318C318C05
:1025F000318C318C318C318C318C318C318C318CF3
:1026000031FC31FC000000003F9C3F9C318C318C40
:10261000318C318C318C318C318C318C318C318CD2
:1026200031FC31FC00000000380038003000300080
:10263000300030003000300030003000300030001A
:102640003FFC3FFC000000003FFC3FFC318C318C24
:10265000318C318C318C318C318C318C318C318C92
:102660003FFC3FFC000000003F9C3F9C318C318CC4
:10267000318C318C318C318C318C318C318C318C72
:102680003FFC3FFC000000000000000000000000D4
:1026900000000000183018300000000000000000AA
:1026A00000000000000000000000000000003FFFEC
:1026B000FFFC3FFFFFFC3000000C3000000C30003E
:1026C000000C3000000C3000000C3000000C30001A
:1026D000000C3000000C3FFFFFFC3FFFFFFC000040
:1026E00000000000000000000000000000000000EA
:1026F00000000000000000000000000000003000AA
:102700000000300000003FFFFFFC3FFFFFFC000027
:1027100000000000000000000000000000000000B9
:1027200000000000000000000000000000003C016C
:10273000FFFC3C01FFFC3001800C3001800C3001BB
:10274000800C3001800C3001800C3001800C300195
:10275000800C3001800C3FFF800C3FFF800C00009C
:102760000000000000000000000000000000380031
:10277000003C3800003C3001800C3001800C3001FE
:10278000800C3001800C3001800C3001800C300155
:10279000800C3001800C3FFFFFFC3FFFFFFC00007E
:1027A00000000000000000000000000000003FFFEB
:1027B00080003FFF800000018000000180000001D8
:1027C0008000000180000001800000018000000105
:1027D0008000000180003FFFFFFC3FFFFFFC000086
:1027E00000000000000000000000000000003FFFAB
:1027F000803C3FFF803C3001800C3001800C300178
:10280000800C3001800C3001800C3001800C3001D4
:10281000800C3001800C3001FFFC3001FFFC000017
:1028200000000000000000000000000000003FFF6A
:10283000FFFC3FFFFFFC3001800C3001800C3001B9
:10284000800C3001800C3001800C3001800C300194
:10285000800C3001800C3C01FFFC3C01FFFC0000BF
:1028600000000000000000000000000000003C002C
:1028700000003C000000300000003000000030008C
:102880000000300000003000000030000000300088
:102890000000300000003FFFFFFC3FFFFFFC000096
:1028A00000000000000000000000000000003FFFEA
:1028B000FFFC3FFFFFFC3001800C3001800C300139
:1028C000800C3001800C3001800C3001800C300114
:1028D000800C3001800C3FFFFFFC3FFFFFFC00003D
:1028E00000000000000000000000000000003FFFAA
:1028F000803C3FFF803C3001800C3001800C300177
:10290000800C3001800C3001800C3001800C3001D3
:10291000800C3001800C3FFFFFFC3FFFFFFC0000FC
:1029200000000000000000000000000000000000A7
:10293000000000000000000000000FF00FF00FF09A
:102940000FF00C0000300C0000300FF00FF00FF013
:102950000FF0000000000000000000000000000078
:102960000000000000000000000000000000000067
:102970003FF1818FFC3FF1818FFC3031818C0C3035
:1029800001818C0C3001818C0C3FF1818C0C3FF16A
:10299000818C0C0031818C0C0031818C0C303181A8
:1029A0008C0C3FF1FF8C0C3FF1FF8C0C0000000001
:1029B0000000000000000000000000000000000017
:1029C000000000000000FE02920A542A38AA12AA4F
:1029D00012AA12AA12AA1FF810081818142813C84D
:1029E000100810081FF80FFE300226DA26DA26DA61
:1029F00026DA30020FFE1854321C1C325418C399C8
:102A000024202C2499C3C3BD42524E423CC3000033
:102A1000302A0008000000202C0000006C01000893
:102A20005C2A00082C0000206406000088010008D1
:102A30000000000000A24A040000000000000000A6
:102A40000102030406070809000000000102030454
:0C2A50000102030406070809020406083E
:0400000508000131BD
:00000001FF
