:10000300D2BABEA7C6C1C3E6CFF2D7D4BCBAA3AC9B
:10001300D2FDBDC5D7F3C6F00031204437202032CE
:10002300204436202033204435202034204434001B
:1000330035204433202036204432202037204431D9
:100043002020382044300039205253542031305777
:10005300522020313152442020313241300031339B
:10006300435320203134474E4420313556434320F7
:100073003136B5C6B8BABCAB003137BAECB5C6D564
:10008300FDBCAB20203138B0D7B5C6D5FDBCAB0025
:10009300B3F5CABCBBAFB4FAC2EBBCE6C8DD53547C
:1000A300373532353600C8FDCAAEB6FEBCB6C1C15F
:1000B300B6C8BADAB0D7D1DDCABE00B0B5203C2D80
:1000C3002D2D2D2D2D2D2D2D3E20C1C1002A204C4F
:1000D3004344203234302A313630203332BCB6BB6D
:1000E300D2B6C8C6C1202A00D6D0D3A2CEC4D7D692
:1000F300B7FBBACDCDBCD0CEB2E2CAD400B5A5C64B
:10010300ACBBFAA3BA53544331324335613630732F
:100113003200BBD2B6C8BCB6B1F020303C2D2D2D79
:100123002D3E333100323031382D31312D313520F0
:10013300B5DA3130B0E60000000000000000000036
:10014300000000000000000000001010101010104C
:100153000010100000000000000024242400000010
:100163000000000000000000000024247E2424245A
:100173007E242400000000000000107C90907C127C
:10018300127C1000000000000000006264081020D0
:100193004C8C000000000000000000182420508A4E
:1001A300844A30000000000000001010200000000E
:1001B3000000000000000000000810202020202084
:1001C300202010080000000000201008080808087C
:1001D3000808102000000000000000001054383808
:1001E30054100000000000000000000010107C10FC
:1001F30010000000000000000000000000000000EC
:1002030000101020000000000000000000007C002F
:1002130000000000000000000000000000000000DB
:10022300000010000000000000000000020408109D
:1002330020400000000000000000384444444444CF
:10024300444438000000000000001030101010106B
:1002530010103800000000000000384404040810A7
:1002630020407C000000000000007C0408103804DB
:100273000404780000000000000008182848487CA7
:10028300080808000000000000007C40404078049B
:10029300040478000000000000003C404040784423
:1002A300444438000000000000007C0404081020CF
:1002B300202020000000000000003844444438445B
:1002C30044443800000000000000384444443C0427
:1002D30004043800000000000000000000001000CB
:1002E30000100000000000000000000000000010EB
:1002F300001010200000000000000000040810207F
:1003030010080400000000000000000000007C0052
:100313007C00000000000000000000002010080422
:1003230008102000000000000038444404081010A6
:1003330000101000000000000000000038445C546E
:100343005C403C00000000000018244242427E4210
:100353004242420000000000007C4242427C424292
:1003630042427C0000000000003C424040404040CC
:1003730040423C0000000000007C424242424242B4
:1003830042427C0000000000007E40404078404034
:1003930040407E0000000000007E40404078404026
:1003A3004040400000000000003C4240405E4242AA
:1003B30042423C000000000000424242427E424270
:1003C30042424200000000000038101010101010CC
:1003D3001010380000000000001C08080808080876
:1003E300084830000000000000424448506060505C
:1003F300484442000000000000404040404040406C
:1004030040407E0000000000008282C6C6AAAA9275
:1004130092828200000000000042626252524A4A05
:100423004646420000000000003C42424242424233
:1004330042423C0000000000007C424242427C40B9
:100443004040400000000000003C42424242424221
:10045300424A3C0E00000000007C424242427C5073
:100463004844420000000000003C4240403C02027D
:1004730002423C0000000000007C1010101010101D
:10048300101010000000000000424242424242426B
:1004930042423C0000000000004444444428282811
:1004A3001010100000000000008282828254545415
:1004B30028282800000000000042422418181824AD
:1004C3002442420000000000004444444428281011
:1004D3001010100000000000007E0202040810202B
:1004E30040407E0000000000003820202020202013
:1004F3002020380000000000000000000040201011
:100503000804020000000000001C040404040404A6
:1005130004041C0000000000000000102844000038
:1005230000000000000000000000000000000000C8
:10053300000000FF00000000000010100800000091
:1005430000000000000000000000000078043C44AC
:1005530044443A0000000000004040405C624242D4
:1005630042625C0000000000000000003C4240408A
:1005730040423C0000000000000202023A464242B0
:1005830042463A0000000000000000003C42427E68
:1005930040423C0000000000000E1010103C101000
:1005A3001010100000000000000000003E42424214
:1005B300423E02023C000000004040405C62424276
:1005C300424242000000000000000800080808083A
:1005D30008080800000000000000040004040404EC
:1005E30004040444380000000040404042444850A2
:1005F300684442000000000000101010101010109A
:10060300101010000000000000000000EC92929215
:100613009292920000000000000000007C424242DF
:100623004242420000000000000000003C424242FF
:1006330042423C0000000000000000005C624242B5
:1006430042625C4040000000000000003A46424223
:1006530042463A0202000000000000005C62404093
:100663004040400000000000000000003C42403CCD
:1006730002423C00000000000000202078202020DF
:1006830020221C0000000000000000004242424201
:1006930042423E000000000000000000424242428D
:1006A30042241800000000000000000082828292B1
:1006B30092AA4400000000000000000042422418F7
:1006C3002442420000000000000000004242424277
:1006D300423E02023C000000000000007E020418BB
:1006E30020407E0000000000000810101020402071
:1006F300101010080000000010101010101010103F
:100703001010101010100000002010101008040822
:100713001010102000000000000000000022548888
:1007230000000000000000000000000000000000C6
:0707330000000000000000BF
:100BBB007BFF750E1FE4F50F22AD01AB17AF1612BD
:100BCB000D518E188F19E518FF7E00120DB5AF1958
:100BDB00AE18020DB57FFF120DFFAA0785161B85F8
:100BEB00161C85161DEA22120DB57F03020DB58565
:100BFB001416A91485141722FC1209DB120DFFE53C
:100C0B001AFF22120E22FF020DB5250DF50DE4354C
:100C1B000CF50C22AB0CAD0CAF0C020D51FF850883
:070C2B0013E4F5147B2A22FB
:0D0DFF008FCFE5CD30E7FB75CDC0AFCF2223
:0A0E1800E4F5CF75CDC075CED022F1
:100DBF00E4FDFCC3ED9FEC9E5015E4FBFA0BBB006A
:0F0DCF00010AEB646E4A70F50DBD00010C80E463
:010DDE0022F2
:100DDF00E4FDFCC3ED9FEC9E5015E4FBFA0BBB004A
:0F0DEF00010AEB64024A70F50DBD00010C80E4AF
:010DFE0022D2
:0A0E2200C2A38F8000D2A2C2A22258
:100D9C00AB1DAD1CAF1B120D518E1E8F1FE51EFF20
:090DAC007E00120DB5AF1FAE1E52
:0A0DB500D2A38F8000D2A2C2A222B6
:10084D00C2A1C2A4C2A07F327E00120DBFD2A07F72
:10085D00587E02120DBF7F307E00120E227F941241
:10086D000E227F31120E227FD7120E227F9F120D84
:10087D00B57F32120E22E4FF120DB50F120BF27F6F
:10088D0020120E227F01120BF27F05120DB57F078C
:10089D00120DB57F09120DB57F0B120DB57F0D121F
:1008AD000DB57F10120DB50F120DB57F13120DB5CD
:1008BD007F15120DB57F17120DB57F19120DB57F6E
:1008CD001B120DB57F1D120DB57F1F120DB57F309B
:1008DD00120E227F75120C0E7F14120DB50F120C15
:1008ED000E7FEF120DB57FBC120E227F02120DB5D9
:1008FD007FCA120C0E7F9F120DB57F20120DB57F92
:10090D00F0120E227F9F120DB57F81120E227F985D
:10091D00120BF27F20120E227F0B120DB57F781273
:07092D000DDF7FAF020E2277
:0E0D4300120D51EEFF7E00120DB5AF01AD0195
:100D5100AC07ED75F040A4F582EB33333354F8FE64
:100D6100E42582FFEE35F0FEAD047C00EF2DFFECB3
:030D71003EFE2221
:100CDA00AC0774182CFCC3749F9DFDEC540FFF7E67
:100CEA0000120E22ECC4540F4410FF120E22ED54CF
:100CFA000F2460FFEE33FE120E22EDC4540F24704F
:070D0A00FFE433FE020E229C
:030D7400E4FFFE9B
:040D7700AB07AA0616
:100D7B00E4F9AD01E4FF120CDAE4FDEAFF7E0012A8
:100D8B000DB5AF03FE120DB50DBD50EF09B9A0E2C5
:010D9B002235
:060B32008F108D118B12E3
:100B380074E02512F512E4FAE5112AFDAF10120C43
:100B4800DA75F010E512A4243AF582E5F03401F5DF
:100B580083E5822AF582E43583F583E493F515125B
:100B68000BFA30E703851316E51530E602A913E5FD
:100B78001530E503851317120BC4120BFAE515306F
:100B8800E403851316E51530E302A913E51530E2F1
:100B980003851317120BC4120BFAE51530E1038510
:100BA8001316E51530E002A913120BC40AEA641003
:020BB800708645
:010BBA002218
:04073A008F108D117E
:10073E0090000112094D245FFDE434FFFCC004C09B
:10074E0005120934245FFFE434FFFE7C007D5E1247
:10075E00097AD0E02FFFD0E03EFEE4FD7B20FAF9CF
:10076E00F812098CE42FF51AEE3410F519E43DF564
:10077E0018E43CF517C2947F0B120C07E519FEE541
:10078E0018FDE47810120C03E519FEE4FD7808124A
:10079E000C03120DFF7FFF120DFFE4F9E51129FD89
:1007AE00AF10120CDA120BE030E70385151CEA309D
:1007BE00E60385151D120D9C120BE730E50385151A
:1007CE001BEA30E40385151CEA30E30385151D1280
:1007DE000D9C120BE730E20385151BEA30E1038511
:1007EE00151CEA30E00385151D120D9C120BE0302E
:1007FE00E70385151BEA30E60385151CEA30E50391
:10080E0085151D120D9C120BE730E40385151BEAAE
:10081E0030E30385151CEA30E20385151D120D9C8D
:10082E00120BE730E10385151BEA30E00385151C3A
:0E083E00120D9C09E9641060030207AAD2940F
:01084C002289
:100C32008F098D0A8B0B8A0C890DAB0BAA0CA90D9F
:100C4200120934603FC39480501A120934FB850E96
:100C520013850F14AD0AAF09120B327401120C1571
:100C62007403801AAB0BAA0CA90D850E15850F16FD
:100C7200AD0AAF0912073A7402120C15740625095F
:050C8200F50980B62217
:020D1100AA0333
:100D1300120CDAEA75F00384FA120C1FEEF50E7565
:100D23000D00120C1FAD07AC06AF021AEF6010AF37
:0F0D33000EAE0D120DB5AF05AE04120DB580EA70
:010D4200228E
:100AA700120D747A007903120BBB7D02120B277D9E
:100AB70016E4FF120D117A00791C120BBB7D1E1272
:100AC7000B1F7A007933120BBD7D32120B1F7A0090
:100AD700794A120BBD7D467F01120C327BFF7A00EB
:100AE7007961120BBD7D5A7F01120C327BFF7A00B0
:100AF700797C120BBD7D6E120B277D84E4FF120DEE
:100B0700117BFF7A007993120BBD7D8C7F01120C4C
:100B1700327F607EEA020DBF7F01120C327BFF221B
:0B0B27007F01120C32750C1F7BF022C6
:100C8700120D747A32AD027F05120CDAE4F9AF0166
:100C9700AD01AB01120D43120DB5AF01AD01120D40
:100CA70043120DB509B920E60ABA64D97BFF7A0069
:100CB70079A9120BBD7D0F7F0A120C327BFF7A00D8
:100CC70079BE120BBD7D827F0D120C327F607EEAEA
:030CD700020DBF4C
:1009EE00120E1812084DE4FFFE120D777BFF7A00EF
:1009FE0079D0120BBDFDFF120C327BFF7A0079EB22
:100A0E00120BBD7D28120A9F7A017900120BBD7D53
:100A1E003C120A9F7A017915120BBD7D507F06128A
:100A2E000C327BFF7A017928120BBD7D8C7F181258
:100A3E000C32750C1F7BF07D14E4FF120D11750C3A
:100A4E001F7BF07D16E4FF120D11E4F508E5082575
:100A5E00E025E02405120C287D64120B320508E512
:100A6E0008C3941040E7E508C394205014E5082508
:100A7E00E025E024C5120C287D78120B3205088083
:100A8E00E57F607EEA120DBF120AA7120C870209DB
:010A9E00F463
:080A9F007F06120C327BFF22DE
:03000000020E0CE1
:0C0E0C00787FE4F6D8FD75811F0209EE26
:10093400BB010689828A83E0225002E722BBFE02C1
:09094400E32289828A83E49322F4
:10094D00BB010CE58229F582E5833AF583E022505F
:10095D0006E92582F8E622BBFE06E92582F8E222A9
:0D096D00E58229F582E5833AF583E49322C3
:10097A00EF8DF0A4A8F0CF8CF0A428CE8DF0A42E91
:02098A00FE224B
:10098C00E88FF0A4CC8BF0A42CFCE98EF0A42CFC0A
:10099C008AF0EDA42CFCEA8EF0A4CDA8F08BF0A488
:1009AC002DCC3825F0FDE98FF0A42CCD35F0FCEBE7
:1009BC008EF0A4FEA9F0EB8FF0A4CFC5F02ECD39AC
:0F09CC00FEE43CFCEAA42DCE35F0FDE43CFC2219
:1009DB00E8600FECC313FCED13FDEE13FEEF13FFFA
:0309EB00D8F1221E
:00000001FF
