:100129005F063D2F664B7B0E7F6FEE76F03EF4E463
:0C013900FEFE016D3100406E54505C1C55
:100048007E80C2B20000E4FDEE30E704D2B5800243
:10005800C2B5C2B40000D2B400EE25E0FE0DBD0466
:10006800E7E4FDEF30E704D2B58002C2B5C2B400C0
:1000780000D2B400EF25E0FF0DBD08E7D2B20000C2
:010088002255
:100003007E05EEC43354E0FEE4FDEE30E704D2B5E2
:100013008002C2B5C2B40000D2B400EE25E0FE0DEA
:10002300BD03E7EF25E025E0FFE4FDEF30E704D271
:10003300B58002C2B5C2B40000D2B400EF25E0FF20
:040043000DBD06E702
:010047002296
:10010D00E4FEEF30E704D2B58002C2B5C2B4000000
:0B011D00D2B400EF25E0FF0EBE08E7A3
:0101280022B4
:1000C300D2B2C2B4D2B5E4FF000FBF80FB7F52129D
:1000D30000487F30120048E4FF1200487F0A1200F4
:0B00E300487F021200487F0602004820
:1000EE00AC05C2B2EF2F24FEFF120003EC900129E3
:0F00FE009330000444018000FF12010DD2B222A2
:10017400C2B2E4FF120003E4FDE4FF12010D0DBD61
:0401840011F7D2B2EB
:010188002254
:100145007FEB12015B7FEB12015B7FEB12015B7FA3
:06015500EB12015B7FEBE1
:03015B00DFFE22A2
:10015E00AD07AC06ED1D70011C144C600812014574
:06016E0012014580EF22A2
:100089001200C31201747B01C2B2E4FAC2B27F0B3F
:10009900120003AF0312010DD2B27FFA7E001201E2
:1000A9005E7FFA12015E7FFA12015E7FFA12015E2B
:0A00B900EB25E0FB0ABA08D480CC66
:0300000002018971
:0C018900787FE4F6D8FD75812002008923
:00000001FF
