:1001B1007510007511157BF17A00E4FDFCFFFE223C
:1001C100D2928F808F808F808F8022C3ED9FEE64CB
:1001D10080F8EC64809822120292FF02027ECF2402
:0801E100FFCF34FFFE02027E95
:10023D00E4FDFC1201CC5015E4FBFA0BBB00010AE6
:0D024D00BA01F8BBFEF50DBD00010C80E606
:01025A002281
:10025B00E4FDFC1201CC5015E4FBFA0BBB00010AC8
:0D026B00EB640A4A70F50DBD00010C80E641
:010278002263
:08029200C2911201C1C29222C7
:0502790012027E7F036C
:08027E00D2911201C1C29222CB
:10000300C293C290C2947F967E0012023DD2941294
:10001300023D7F301202927F941202927F311202CC
:10002300927FD71202927F9F12027E7F3212029238
:10003300E4FF12027E0F1202797F201202927F01E7
:100043001202797F0512027E7F0712027E7F091258
:10005300027E7F0B12027E7F0D12027E7F10120240
:100063007E0F12027E7F1312027E7F1512027E7FA5
:100073001712027E7F1912027E7F1B12027E7F1DE2
:1000830012027E7F1F12027E7F301202927F751250
:1000930001D87F1412027E0F1201D87FEF12027E65
:1000A3007FBC1202927F0212027E7FCA1201D87FA6
:1000B3009F12027E7F2012027E7FF01202927F9FA8
:1000C30012027E7F811202921F1202797F20120296
:1000D300927F0B12027E7FC812025B7FAF020292F5
:100171008F828E837F157E00120292AF82AE831230
:10018100027EE5822BFFE5833A1201DF7F757E0057
:10019100120292AF05AE0412027EE5112DCFE510D9
:1001A1003C1201DF7F307E001202927F5C020292DC
:0201E900A90764
:1001EB001201B1120171E4FBFAE9FF7E0012027EEB
:1001FB000BBB00010AE4B503F0EAB401EC0DBD0042
:08020B00010CED64A04C70DE53
:0102130022C8
:1000E3001201B1120171E4FFFE12027E0DBD000187
:1000F3000CED646E4C70EFE4FBFAE4FCFD0509E5DE
:10010300097002050853091F750800E509AE087850
:1001130006C333CE33CED8F9F5828E83E509333364
:100123003354F8FEE42582FFEE3583CF2509CF351E
:10013300088F82FF7E0012027EAF82FE12027E0DC6
:10014300BD00010CED64504C70B3E4F508F509FCF7
:10015300FDE4FFFE12027E0DBD00010CED64604C58
:0D01630070EF0BBB00010AEB64A14A708D28
:01017000226C
:100214001200037FFF1201E91200E37FE87E03125C
:10022400023D7FFF120232E4FF12023280EA120121
:09023400E97FE87E0312023D227D
:0300000002028673
:0C028600787FE4F6D8FD758111020214A7
:00000001FF
