:020000040800F2
:1000000060060020B1010008B9010008BB0100082A
:10001000BD010008BF010008C10100080000000088
:10002000000000000000000000000000C301000804
:10003000C501000800000000C7010008C901000850
:10004000CB010008CB010008CB010008CB01000860
:10005000CB010008CB010008CB010008CB01000850
:10006000CB010008CB010008CB010008CB01000840
:10007000CB010008CB010008CB010008CB01000830
:10008000CB010008CB010008CB010008CB01000820
:10009000CB010008CB010008CB010008CB01000810
:1000A000CB010008CB010008CB010008CB01000800
:1000B000CB010008CB010008CB010008CB010008F0
:1000C000CB010008CB010008CB010008CB010008E0
:1000D000CB010008CB010008CB010008CB010008D0
:1000E000CB010008CB010008CB010008CB010008C0
:1000F000CB010008CB010008CB010008CB010008B0
:10010000CB010008CB010008CB010008CB0100089F
:10011000CB010008CB010008CB010008CB0100088F
:10012000CB010008CB010008CB010008CB0100087F
:1001300000F002F800F02CF80AA090E8000C8244CD
:100140008344AAF10107DA4501D100F021F8AFF2AA
:10015000090EBAE80F0013F0010F18BFFB1A43F0A5
:1001600001031847641100007411000000230024EB
:1001700000250026103A28BF78C1FBD8520728BFB7
:1001800030C148BF0B6070471FB51FBD10B510BD13
:1001900000F031F81146FFF7F7FF00F0EDF900F03D
:1001A0004FF803B4FFF7F2FF03BC00F057F800006C
:1001B0000948804709480047FEE7FEE7FEE7FEE7FB
:1001C000FEE7FEE7FEE7FEE7FEE7FEE70448054937
:1001D000054A064B704700008903000831010008FA
:1001E0006000002060060020600200206002002005
:1001F000704770477047754600F02CF8AE46050012
:100200006946534620F00700854618B020B5FFF731
:10021000DDFFBDE820404FF000064FF000074FF033
:1002200000084FF0000B21F00701AC46ACE8C00914
:10023000ACE8C009ACE8C009ACE8C0098D4670471D
:1002400010B50446AFF300802046BDE81040FFF72C
:10025000A8BF000000487047000000200149182096
:10026000ABBEFEE726000200704710B500F002F8B2
:1002700010BD00000CB500200190009035480068CA
:1002800040F480303349086000BF3248006800F411
:10029000003000900198401C0190009818B9019816
:1002A000B0F5A06FF1D12B48006800F4003010B118
:1002B0000120009001E0002000900098012848D122
:1002C0002548006840F0100023490860084600688F
:1002D00020F0030008600846006840F00100086054
:1002E0001C4840681B49486008464068486008460A
:1002F000406840F4806048600846406840F44040F0
:1003000048600846406820F47C1048600846406811
:1003100040F4881048600846006840F0807008602B
:1003200000BF0C48006800F000700028F9D00948B0
:10033000406820F00300074948600846406840F0E4
:100340000200486000BF0348406800F00C00082825
:10035000F9D10CBD0010024000200240084880691D
:1003600040F01000064988610648006840F03330CC
:10037000044908600846006800F0333008607047A0
:10038000001002400010014010B51348006840F012
:1003900001001149086008464068104908400E49AC
:1003A0004860084600680E4908400B490860084646
:1003B000006820F4802008600846406820F4FE00B1
:1003C00048604FF41F008860FFF74FFF4FF0006058
:1003D0000449086010BD0000001002400000FFF852
:1003E000FFFFF6FE08ED00E030B50446152000F0F2
:1003F000EFF9002000F0ECF95F2000F0E9F975203A
:1004000000F0E6F9002000F0E3F93F2000F0E0F909
:10041000002506E0201200F009FAE0B200F006FA2A
:100420006D1CB5F5405FF5D330BD01B509E0002086
:1004300000E0401C41F63D718842FAD30099491E04
:10044000009100990029F2D108BD000010B50120EB
:100450004749086000204749C1F8900144490831E4
:1004600008604FF49670FFF7E0FF01204149C1F8A2
:100470008C014FF49670FFF7D8FFAE2000F0A8F97A
:10048000812000F0A5F9FF2000F0A2F9822000F001
:100490009FF9FF2000F09CF9832000F099F9FF20DC
:1004A00000F096F9872000F093F9062000F090F90B
:1004B0008A2000F08DF9642000F08AF98B2000F08A
:1004C00087F9782000F084F98C2000F081F964200D
:1004D00000F07EF9A02000F07BF9722000F078F99E
:1004E000A12000F075F9002000F072F9A22000F0C0
:1004F0006FF9002000F06CF9A42000F069F9A82041
:1005000000F066F93F2000F063F9AD2000F060F9DB
:100510008E2000F05DF9B02000F05AF9002000F0C4
:1005200057F9B12000F054F9312000F051F9B3200F
:1005300000F04EF9F02000F04BF9BB2000F048F934
:100540003A2000F045F9BE2000F042F93E2000F0CC
:100550003FF92E2000F03CF9AF2000F039F90020DF
:10056000FFF742FF012002490C31086010BD000076
:10057000840122420000224208B5FFF7EFFEFFF798
:1005800065FF4FF478404FF6E0730022114600906B
:10059000144800F0FCF800204FF4FC6301220146EF
:1005A0000090114800F0F3F800204FF6E0730322AA
:1005B000014600900DA000F0EAF800204FF4FC6323
:1005C0000522014600900CA000F0C0F800204FF674
:1005D0001F0304220146009007A000F0B7F800BFF7
:1005E000FEE70000800B0008890B000848656C6C72
:1005F0006F2021212100000057656C636F6D65201D
:1006000020212121000000002DE9F04705460E467B
:1006100017469846DDF820A006EB46004006060E79
:10062000F806070EA5F12000C5B2002438E0152019
:1006300000F0CEF8304600F0CBF85F2000F0C8F8AC
:10064000752000F0C5F83919C8B200F0C1F83F2094
:1006500000F0BEF84FF000091DE0134800EBC500A4
:10066000015D012000FA09F0014041B14FEA282064
:1006700000F0DCF808F0FF0000F0D8F807E04FEADF
:100680002A2000F0D3F80AF0FF0000F0CFF809F1BB
:10069000010000F0FF09B9F1070FDEDB601CC4B2F6
:1006A000082CC4DBBDE8F087880800082DE9F04776
:1006B00005460E4617469846DDF820A0F006060EC1
:1006C0003807070EA5F12000C5B2002438E0152038
:1006D00000F07EF8304600F07BF85F2000F078F8FC
:1006E000752000F075F83919C8B200F071F83F2094
:1006F00000F06EF84FF000091DE0134800EB051004
:10070000015D012000FA09F0014041B14FEA2820C3
:1007100000F08CF808F0FF0000F088F807E04FEADE
:100720002A2000F083F80AF0FF0000F07FF809F1BA
:10073000010000F0FF09B9F1080FDEDB601CC4B254
:10074000102CC4DBBDE8F087960B00082DE9F841BA
:1007500004460D4616461F46DDF81C8012E0CDF813
:10076000008020783B4632462946FFF74DFF681C43
:10077000C5B2641C102D05D10025701CC6B2082E10
:1007800000D1002620780028E9D1BDE8F8812DE9C4
:10079000F84104460D4616461F46DDF81C8012E05F
:1007A000CDF8008020783B4632462946FFF77EFF91
:1007B000681CC5B2641C0C2D05D10025701CC6B286
:1007C000042E00D1002620780028E9D1BDE8F88168
:1007D00001B56A461C2303EB421202F108510022C4
:1007E000104B1A60104BC3F89021002012E00A78D9
:1007F0000C4B083B1A6000220B4BC3F884210122EA
:10080000084B1B1F1A609DF800205206120E009222
:10081000421CD0B20828EADB0122024B08331A60DE
:1008200008BD0000880122420000224201B56A464C
:100830001C2303EB421202F108510122104B1A60F3
:100840000022104BC3F89021002012E00A780C4BD4
:10085000083B1A6000220B4BC3F884210122084B8D
:100860001B1F1A609DF800205206120E0092421CB7
:10087000D0B20828EADB0122014B08331A6008BD18
:100880008801224200002242000000000000000017
:1008900004040404040004000A0A0000000000002C
:1008A0000A0A1F0A1F0A0A00081C0A0E14140E0066
:1008B00000161608041A1A000C140C0E12120C0062
:1008C00008080000000000000804040404040800F4
:1008D000040808080808040000040E0E0E040000B6
:1008E0000004040E040400000000000000080800DA
:1008F0000000001E000000000000000000000400D6
:1009000010100808040402000C12121212120C003B
:100910000406040404040E000C12100804021E0055
:100920000C12100C10120C00080C0C0A0A1E080005
:100930001E02020E10100E000C12020E12120C00FB
:100940001E121008040404000C12120C12120C00E7
:100950000C12121C10120C00000004000004000015
:100960000000040000040200100804020408100043
:1009700000001E001E00000002040810080402000F
:100980000C121008040004000C12121A14141C009B
:100990000C1212121E1212000E12120E12120E0061
:1009A0000C12020202120C000E12121212120E008F
:1009B0001E02020E02021E001E02020E02020200AF
:1009C0000C12021A12120C001212121E1212120033
:1009D0000E04040404040E001010101012120C0077
:1009E00012120A060A1212000202020202021E007B
:1009F000121E1E12121212001216161A1A121200CB
:100A00001E12121212121E000E12120E020202000A
:100A10000C121212161A1C000E12120E060A1200E6
:100A20000C12020C10120C001E0404040404040036
:100A30001212121212120C00121212120C0C0C00D2
:100A4000121212121E1E120012120C0C0C121200A4
:100A500011110A04040404001E10080C04021E00F4
:100A60000C04040404040C00010102020404080044
:100A70000C08080808080C00040A00000000000028
:100A80000000000000001E00040400000000000040
:100A90000000001C1C121C000202020E12120E00AA
:100AA0000000001C02021C001010101C12121C007E
:100AB0000000000C1E020C000008041E04040400C8
:100AC0000000001C121C100C0202020E0A0A0A008E
:100AD00000000400040404000000080008080806E0
:100AE0000202021A060A12000404040404040E009E
:100AF0000000001E1A1A1A000000000E1212120046
:100B00000000000C12120C000000000E12120E0267
:100B10000000001C12121C100000001A0602020045
:100B20000000001C06180E000000040E04040C0057
:100B30000000001212121C0000000012120C0C0027
:100B400000000015150E0A00000000120C0C120027
:100B500000000012121C100C0000001E08041E00F1
:100B60000C04040204040C0004040404040404003F
:100B70000604040804040600140A00000000000033
:100B80007F80818283848586008788898A8B8C8D8B
:100B90008E8F909192000000000000000000000085
:100BA000000000000000000000183C3C3C18180049
:100BB00018180000000000000066666600000000D3
:100BC0000000000000000000006C6CFE6C6C6CFE0D
:100BD0006C6C000000000018183C66060C183060B1
:100BE000663C1818000000000E1B5B6E30180C7677
:100BF000DAD8700000000000001C36361C06F666CD
:100C000066DC00000000000000181818000000005A
:100C10000000000000000000003018180C0C0C0C44
:100C20000C18183000000000000C1818303030305C
:100C30003018180C000000000000006C38FE386C02
:100C4000000000000000000000000018187E1818C6
:100C50000000000000000000000000000000000094
:100C6000383830180000000000000000007E00004E
:100C70000000000000000000000000000000000074
:100C80003838000000000000006060303018180C98
:100C90000C060600000000000078CCECECCCDCDC9C
:100CA000CC780000000000000030383E303030309A
:100CB0003030000000000000003C66666030180C18
:100CC000067E000000000000003C6666603860663A
:100CD000663C000000000000000C0C6C6C6C66FEB2
:100CE0006060000000000000007E0606063E6060B6
:100CF000301E0000000000000038180C3E666666DA
:100D0000663C000000000000007E60303018180CC7
:100D10000C0C000000000000003C66666E3C76662D
:100D2000663C000000000000003C666666667C30A1
:100D3000181C00000000000000000038380000000F
:100D400038380000000000000000003838000000C3
:100D50003838301800000000006030180C060C18FD
:100D60003060000000000000000000007E007E00F7
:100D7000000000000000000000060C183060301871
:100D80000C06000000000000003C666630181800E9
:100D90001818000000000000007EC3C3F3DBDBF383
:100DA00003FE00000000000000183C6666667E66D8
:100DB0006666000000000000003E6666663E6666ED
:100DC000663E000000000000003C666606060666FF
:100DD000663C000000000000001E3666666666661F
:100DE000361E000000000000007E0606063E0606D5
:100DF000067E000000000000007E0606063E060695
:100E00000606000000000000003C666606067666E6
:100E1000667C00000000000000666666667E66660E
:100E20006666000000000000003C1818181818182A
:100E3000183C0000000000000060606060606066B8
:100E4000663C00000000000000666636361E36363E
:100E5000666600000000000000060606060606069C
:100E6000067E00000000000000C6C6EED6D6D6C63C
:100E7000C6C600000000000000C6C6CEDEF6E6C60C
:100E8000C6C6000000000000003C66666666666636
:100E9000663C000000000000003E6666663E0606F6
:100EA0000606000000000000003C66666666666696
:100EB000663C306000000000003E6666663E3666B6
:100EC0006666000000000000003C66060C183060FA
:100ED000663C000000000000007E18181818181862
:100EE0001818000000000000006666666666666608
:100EF000663C000000000000006666666666666686
:100F00003C1800000000000000C6C6C6D6D6D66C4D
:100F10006C6C0000000000000066662C1818346637
:100F2000666600000000000000666666663C1818F1
:100F30001818000000000000007E606030180C06E9
:100F4000067E000000000000003C0C0C0C0C0C0C99
:100F50000C0C0C0C3C0000000006060C0C181830A1
:100F60003060600000000000003C30303030303035
:100F7000303030303C0000183C66000000000000BB
:100F80000000000000000000000000000000000061
:100F900000000000FF00001C1830000000000000EE
:100FA00000000000000000000000003C60607C6663
:100FB000667C0000000000000006063E666666666D
:100FC000663E0000000000000000003C66060606C9
:100FD000663C0000000000000060607C666666669B
:100FE000667C0000000000000000003C66667E0693
:100FF000063C00000000000000780C0C0C7E0C0C7D
:101000000C0C0000000000000000007C66666666B4
:10101000667C60603E0000000006063E666666660E
:1010200066660000000000001818001E1818181846
:10103000187E0000000000003030003C30303030BE
:10104000303030301E0000000006066666361E3660
:101050006666000000000000001E18181818181816
:10106000187E0000000000000000007ED6D6D6D614
:10107000D6C60000000000000000003E66666666FE
:1010800066660000000000000000003C66666666C0
:10109000663C0000000000000000003E66666666D8
:1010A000663E0606060000000000007C6666666676
:1010B000667C60606000000000000066760E060638
:1010C00006060000000000000000007C06063C60F0
:1010D000603E000000000000000C0C7E0C0C0C0CAC
:1010E0000C7800000000000000000066666666667E
:1010F000667C000000000000000000666666666610
:101100003C18000000000000000000C6D6D6D6D66D
:101110006C6C00000000000000000066663C183C9B
:1011200066660000000000000000006666666666F5
:10113000663C30180F0000000000007E6030180C84
:10114000067E00000000000000301818180C060C85
:10115000181818300000000000181818181818186F
:101160001818181818000000000C181818306030F3
:101170001818180C00000000008EDB710000000041
:1011800000000000000000DE128A8A868A12D25215
:1011900056CA42424242007F003F20203F007F511A
:1011A0004A7F44445420003EA2223EC23EA524BCB5
:1011B00080FC8080FF0002043F110A7F043F04048A
:1011C000001F00007F000004080880402F888888E6
:1011D0008888A89808000202050508106008040223
:1011E000010020203F0008088808083FC8080808B8
:1011F000083887C2800000003F0000007F0404021E
:101200000211207F40004040FC4040FF80403018E9
:10121000F4121110E00000100B04027F0000080718
:10122000001010101F0000FE8080808080FC8080F5
:1012300080808080FF00003F00000000001F000051
:10124000000000007F00808080FC848484FC848413
:1012500084FC848080000000001F1010101F1010FC
:10126000101F5040407F00FE0000008080FF808003
:1012700080808080A040001F08040201007F0000E1
:1012800000000000000010925410FF549211087FDB
:10129000444226182C430404047C222222251414E0
:1012A00008081414224100803F0808043C26262523
:1012B00024A43C240400001F10101111117F404091
:1012C000405F404028100000D812000800000020B5
:0812D000600600006C0100083B
:0400000508000131BD
:00000001FF
