:1001BD00FA0ABC9E4ED6F68AFEDEEE76F03EF4E4EA
:0C01CD00FEFE016D3100406E54505C1CC1
:07021A00AF03C2007D1522B5
:1000F3007E80C2B20000E4FDEE30E704D2B5800298
:10010300C2B5C2B40000D2B400EE25E0FE0DBD04BA
:10011300E7E4FDEF30E704D2B58002C2B5C2B40014
:1001230000D2B400EF25E0FF0DBD08E7D2B2000016
:0101330022A9
:1000AE007E05EEC43354E0FEE4FDEE30E704D2B537
:1000BE008002C2B5C2B40000D2B400EE25E0FE0D3F
:1000CE00BD03E7EF25E025E0FFE4FDEF30E704D2C6
:1000DE00B58002C2B5C2B40000D2B400EF25E0FF75
:0400EE000DBD06E757
:0100F20022EB
:1001A100E4FEEF30E704D2B58002C2B5C2B400006C
:0B01B100D2B400EF25E0FF0EBE08E70F
:0101BC002220
:10013400D2B2C2B4D2B5E4FF000FBF80FB7F52122B
:1001440000F37F301200F3E4FF1200F37F0A120081
:0B015400F37F021200F37F060200F3AD
:10018200AC05C2B2EF2F24FEFF1200AEEC9001BD0F
:0F0192009330000444018000FF1201A1D2B22279
:0C0201007B0112021A1201820BBB11F6E5
:01020D0022CE
:1001D9007FEB1201EF7FEB1201EF7FEB1201EF7F53
:0601E900EB1201EF7FEBB9
:0301EF00DFFE220E
:10000300AD07AC06ED1D70011C144C60081201D93C
:060013001201D980EF226A
:0F01F200438910E4F58DF58BD2AFD2ABD28E22BC
:03001B0002015F80
:10015F00C0E0C0D0758DFF758B0B0508E508B5099C
:10016F0003750800E5087004D2B68002C2B6D0D07D
:03017F00D0E0329B
:10001E0075090375B2401201F2C2B7120134120211
:10002E00017B01AF03EB540FFDC2001200A31200BF
:10003E00977F327E0012000312021A1200A30BBB2E
:10004E0011E17B011200970BBB11F97FE87E0312C1
:10005E0000037FFA7E001200037B0112021A1201C6
:10006E00820BBB11F67FE87E031200037B01AF0308
:10007E00EB540FFDD2001201820BBB11F17F307ECB
:09008E00751200037B0102003130
:10009700AF03EB540FFDD200120182221201827FBF
:0700A700327E00120003226B
:0300000002020EEB
:0C020E00787FE4F6D8FD75812002001E08
:00000001FF
