:020000040800F2
:1000000060060020B1010008B9010008BB0100082A
:10001000BD010008BF010008C10100080000000088
:10002000000000000000000000000000C301000804
:10003000C501000800000000C7010008C901000850
:10004000CB010008CB010008CB010008CB01000860
:10005000CB010008CB010008CB010008CB01000850
:10006000CB010008CB010008CB010008CB01000840
:10007000CB010008CB010008CB010008CB01000830
:10008000CB010008CB010008CB010008CB01000820
:10009000CB010008CB010008CB010008CB01000810
:1000A000CB010008CB010008CB010008CB01000800
:1000B000CB010008CB010008CB010008CB010008F0
:1000C000CB010008CB010008CB010008CB010008E0
:1000D000CB010008CB010008CB010008CB010008D0
:1000E000CB010008CB010008CB010008CB010008C0
:1000F000CB010008CB010008CB010008CB010008B0
:10010000CB010008CB010008CB010008CB0100089F
:10011000CB010008CB010008CB010008CB0100088F
:10012000CB010008CB010008CB010008CB0100087F
:1001300000F002F800F02CF80AA090E8000C8244CD
:100140008344AAF10107DA4501D100F021F8AFF2AA
:10015000090EBAE80F0013F0010F18BFFB1A43F0A5
:1001600001031847E8AE0000F8AE000000230024A9
:1001700000250026103A28BF78C1FBD8520728BFB7
:1001800030C148BF0B6070471FB51FBD10B510BD13
:1001900000F031F81146FFF7F7FF00F0E5FB00F043
:1001A0004FF803B4FFF7F2FF03BC00F057F800006C
:1001B0000948804709480047FEE7FEE7FEE7FEE7FB
:1001C000FEE7FEE7FEE7FEE7FEE7FEE70448054937
:1001D000054A064B70470000E90800083101000895
:1001E0006000002060060020600200206002002005
:1001F000704770477047754600F02CF8AE46050012
:100200006946534620F00700854618B020B5FFF731
:10021000DDFFBDE820404FF000064FF000074FF033
:1002200000084FF0000B21F00701AC46ACE8C00914
:10023000ACE8C009ACE8C009ACE8C0098D4670471D
:1002400010B50446AFF300802046BDE81040FFF72C
:10025000A8BF000000487047000000200149182096
:10026000ABBEFEE726000200704710B504464320EF
:1002700000F02CF9002000F029F97F2000F026F989
:10028000422000F023F9002000F020F99F2000F028
:100290001DF9002303E0204600F030F95B1CB3F5A4
:1002A000A04FF8D310BD30B503461D46432000F0E3
:1002B0000DF9002000F00AF97F2000F007F9422034
:1002C00000F004F9002000F001F99F2000F0FEF892
:1002D000002404E0288800F011F9AD1C641CB4F57A
:1002E000A04FF7D330BD30B503460C46154643202A
:1002F00000F0ECF8C4F17F01C8B200F0E7F87F200D
:1003000000F0E4F8422000F0E1F8C3F19F01C8B228
:1003100000F0DCF89F2000F0D9F8284600F0EEF855
:1003200030BD000010B50020664908606649C1F87C
:10033000AC01FA2000F008FB01206249091F0860A7
:10034000FA2000F001FB2C2000F0C0F8142000F08F
:10035000FBFAEA2000F0BAF80A2000F0F5FA0220D1
:1003600000F0B4F8012000F0B1F80A2000F0ECFA37
:10037000202000F0ABF80A2000F0A8F80A2000F0D6
:10038000E3FA262000F0A2F8012000F09FF80A20EE
:1003900000F0DAFA262000F099F8092000F096F82B
:1003A0000A2000F0D1FA262000F090F80B2000F08F
:1003B0008DF80A2000F0C8FA262000F087F80F20F8
:1003C00000F084F80A2000F0BFFA282000F07EF840
:1003D000012000F07BF8452000F078F8002000F0C4
:1003E00075F8532000F072F8002000F06FF810202C
:1003F00000F06CF8232000F069F8242000F066F883
:10040000112000F063F8302000F060F8022000F0C6
:100410005DF8322000F05AF80E2000F057F8402026
:1004200000F054F8002000F051F8432000F04EF89E
:10043000002000F04BF87F2000F048F8422000F048
:1004400045F8002000F042F89F2000F03FF83420EB
:1004500000F03CF8892000F039F82A2000F036F846
:10046000D12000F033F82B2000F030F8002000F00D
:100470002DF80A2000F068FA222000F027F8112059
:1004800000F024F8552000F021F8002000F01EF8BC
:10049000362000F01BF8002000F018F85A2000F079
:1004A00015F8002000F012F8142000F04DFA512049
:1004B00000F00CF80020FFF7D8FE01200249C1F837
:1004C000B00110BDB0812142008021420021084AC4
:1004D0001160084AC2F8B4110749C8600021044AF3
:1004E0000832116001211160014A1160704700005B
:1004F000B0812142008021420010014000210E4ABB
:10050000116001210D4AC2F8B411010A0C4AD160F0
:100510000021094A083211600121084AC2F8B811C5
:100520000749C8600021044A0832116001211160A6
:10053000014A116070470000B081214200802142D1
:10054000001001402DE9FF4F84B081468A4600200B
:10055000029083460698A0EB09050798A0EB0A06CF
:10056000CDF80490CDF800A0002D01DD012705E0B5
:100570000DB9002702E04FF0FF376D42002E02DD7B
:100580004FF0010806E016B94FF0000802E04FF006
:10059000FF387642B54201DD2C4600E034460020AB
:1005A00003901EE0009AD1B2019AD0B2119AFFF7DF
:1005B0009AFE029828440290B3440298A04205DDB6
:1005C0000298001B0290019838440190A34504DD75
:1005D000ABEB040B0098404400900398401C80B2A1
:1005E0000390611C03988842DCDD08B0BDE8F08F01
:1005F0002DE9F04706460F4690469A4600244546A8
:100600000320A0EB480944E07A1BD1B23219D0B2E2
:100610005246FFF768FE3A1BD1B27219D0B2524669
:10062000FFF761FE3A19D1B27219D0B25246FFF704
:100630005AFE7A19D1B23219D0B25246FFF753FEA0
:100640007A19D1B2321BD0B25246FFF74CFE3A199A
:10065000D1B2721BD0B25246FFF745FE7A1BD1B21F
:10066000321BD0B25246FFF73EFE3A1BD1B2721B8C
:10067000D0B25246FFF737FE641CB9F1000F03DA1F
:10068000A000801D814404E0601B80000A3081448A
:100690006D1EAC42B8DDBDE8F08700002DE9F043E7
:1006A00005460E4614469846DDF81C90A5F120003C
:1006B000C5B24320FFF70AFF2107080EFFF706FF28
:1006C0000F2101EB0411C8B2FFF700FF4220FFF732
:1006D000FDFEC6F11301C906080EFFF7F7FEC6F1CD
:1006E0001301072202EBC101C8B2FFF7EFFE00239E
:1006F00016E0002710E00C4800EB0510C05C01215B
:10070000B940084018B14046FFF7F8FE02E04846FD
:10071000FFF7F4FE781CC7B2082FECDB581CC3B2FD
:10072000102BE6DBBDE8F0835CAA00082DE9F84356
:1007300007460C4615469846DDF820903E4612E0E6
:10074000CDF80090307843462A462146FFF7A6FFB1
:10075000601CC4B2761C142C05D10024681CC5B2E0
:10076000082D00D1002530780028E9D1BDE8F883B4
:1007700010B500F001F810BD0CB5002001900090FC
:100780003548006840F480303349086000BF324883
:10079000006800F4003000900198401C019000981F
:1007A00018B90198B0F5A06FF1D12B48006800F49A
:1007B000003010B10120009001E00020009000986E
:1007C000012848D12548006840F0100023490860FE
:1007D0000846006820F0030008600846006840F002
:1007E000010008601C4840681B4948600846406892
:1007F00048600846406840F48060486008464068A9
:1008000040F4404048600846406820F47C1048604E
:100810000846406840F4881048600846006840F088
:100820008070086000BF0C48006800F0007000286D
:10083000F9D00948406820F003000749486008469D
:10084000406840F00200486000BF0348406800F084
:100850000C000828F9D10CBD001002400020024015
:100860001D48806940F010001B4988611B480068E2
:1008700040F03330194908600846006800F0333012
:1008800008604FF6FF70C8601348806940F00800A8
:10089000114988611248006840F0333010490860FF
:1008A0000846006800F0333008604FF6FF700C49CE
:1008B000083108600848806940F0040006498861F2
:1008C0000848006840F003000649086008460068D0
:1008D00020F00C000860704700100240001001403A
:1008E000040C01400408014010B51348006840F0B2
:1008F00001001149086008464068104908400E4947
:100900004860084600680E4908400B4908600846E0
:10091000006820F4802008600846406820F4FE004B
:1009200048604FF41F008860FFF722FF4FF000601F
:100930000449086010BD0000001002400000FFF8EC
:10094000FFFFF6FE08ED00E001B509E0002000E041
:10095000401C41F63D718842FAD30099491E00912E
:1009600000990029F2D108BD08B5FFF779FF00F022
:100970005FF8FFF7D7FC2248FFF795FC00204FF403
:10098000FC630246014600901EA0FFF7CFFE002048
:100990004FF478430122014600901DA0FFF7C6FEE8
:1009A00000201F230222014600901CA0FFF7BEFE7C
:1009B0004FF4FC607F239F22002100900846FFF740
:1009C000C1FD4FF47A70FFF7BFFF4FF478431E224A
:1009D00040215020FFF70CFE4FF47A70FFF7B4FF70
:1009E0004FF47A70FFF7B0FF09E00F480068C0438A
:1009F0000E49C1F8A0014FF4FA70FFF7A5FFF4E724
:100A00005C0A000848656C6C6F2021212100000001
:100A100041424344454647484900000061626364DF
:100A20006566676869000000A0012142000021425C
:100A30000848806940F0010006498861064840681E
:100A400020F0E060044948600846406840F00070CB
:100A50004860704700100240000001402011201142
:100A60000011000900090009E008E008C008E008DA
:100A7000E00801090109E008E008C000C000C0006A
:100A8000C000C000C000C000A000A000A000A000E6
:100A9000A000C000C000C100E108E108E0080011AA
:100AA000001120112011201100110011E008E008B0
:100AB000E008E008C008C008A000A000A000A00056
:100AC000A000800080008000800080008000800006
:100AD0008000800080008000800080008000A000F6
:100AE000A000A000A000C100C100C108C100C10851
:100AF000E108E108E108E108E108E108E108E008AF
:100B0000E008C008C000A000A000A000A000A00055
:100B1000A000800080006000600060008000800015
:100B200080008000800080008000A000A000A00065
:100B3000A000A000A000C008E008E008C008C008AD
:100B4000C008C008C000C000A000A000A000A00015
:100B5000C000C000C000E000E000E0002011201153
:100B6000201100110009000900090009E008E0084F
:100B7000E008E008E008E008E008C008C000C000A5
:100B8000C000A000A000A000A0008000A000A00065
:100B9000A000A000A000C000E108E108E0080009F2
:100BA00000112011201100110011E008E008E008F8
:100BB000E008E008C008C008A000A000A000A00055
:100BC000A000A000800080008000800080008000E5
:100BD0008000800080008000800080008000A000F5
:100BE000A000A000A000A000C000C000C108E10853
:100BF000E108E1080109E108E108E108010901094A
:100C0000E008E008C008C000C000C000A000A000CC
:100C100080008000800080008000800080008000D4
:100C20008000800080008000A000A000A008A0003C
:100C3000A000A000C008C008E008E008E008E00844
:100C4000E008E008E008C008C000C000C000C00024
:100C5000C000C000E000E000E000E0002011201132
:100C60002011001100110011001100110011E00805
:100C7000E008E008C008C008C008E008C000C000E4
:100C8000C000C000A000A000A000A000C000A00004
:100C9000A000A000A000C000E100E10800090011D0
:100CA00000110011001100110011E008E008E00837
:100CB000E008C008C008C008A000A000A000A00074
:100CC000A000A000800080008000800080008000E4
:100CD000A00080008000A000A000A000A000A00054
:100CE000A000A000A000C000C000C008E108E1080A
:100CF0000109011101110111E108E10801110111BE
:100D00000109E008E008C008C008C008A000A00071
:100D1000A0008000800080008000800080008000B3
:100D2000800080008000A000A000A008C008C008CB
:100D3000C008C008E008E008E0080011E008E0088A
:100D4000001100110009E008E008E008C000C00040
:100D5000E000E000E000E008E008000920112011B8
:100D60002011001100110011001100110011E00804
:100D7000C008C008C008C008C008E008E008E000DB
:100D8000E000E000E000E000C000C000C000C000E3
:100D9000A000A000A000C000E108E108E008E00811
:100DA000001100110011001100110011E008E0080D
:100DB000E008C008C008C008A000A000A000A00073
:100DC000A000A000A000A000A000A000A000A00023
:100DD000A000A000A000A000C100C000C008C00882
:100DE000C008C008C008E008E008E008E008010901
:100DF00001090111011101110109E00801110109A5
:100E00000109E008E008E008E008E008A000A00010
:100E1000A000A000A000A000A000A000A000A000D2
:100E2000A000A000A000A008C008C008E008E008DA
:100E3000E008E008E00800110011001100110011A5
:100E40000011001100090009E008E008E008E008CE
:100E5000E008E0080009000900090009001100117C
:100E6000001100110011001100110011E008C0086C
:100E7000A008A000A000A008C008E0080009000920
:100E8000000900090009000900090009E008C00084
:100E9000C000C000C000C000E108E108E008E008B0
:100EA000E008E0080011001100110011E008E0085E
:100EB000E008C008C008A000A000A000A000A0009A
:100EC000A000A000A000A000A000A000A000A00022
:100ED000A000C000C008C008C108E008E008000980
:100EE00000090009000900090009000900090009BA
:100EF00000090011001100090009E0080109E008DB
:100F0000E008E008C008C008C008C008A000A000B1
:100F1000A000A000A000A000A000A000A000A000D1
:100F2000A000A000A008C008C008E008E008E00891
:100F3000001100110011001100110011E010E0106B
:100F400000110011001100110009E008E00800097B
:100F5000000900090009000900090009E008E0088B
:100F6000E008E008E008E008E008E008C008C00881
:100F7000A000A000A000C008C008E008E008000928
:100F80000009000921112111211121110109010973
:100F9000010901090109010901090109E110001113
:100FA0000011E008E008E008E008E008E008E008D8
:100FB000C008C008C008A000A000A000A000A000B9
:100FC000A000A000C000C000C000C000C000C00061
:100FD000C008C008E008E008E008E008201120117F
:100FE00020112011201120112011201100090009C9
:100FF00000112011001100090009E008E008E008D4
:10100000E008C008C008C008C008C008C008C00880
:10101000C000A000A000A000A000A000A000A000B0
:10102000A008A008C008C008E008E008E008001117
:10103000001101110111011100110011E010E01067
:1010400000110011001100110009E0080009000959
:10105000000900090009000900090009C008C008CA
:10106000C008C008C008C008C008C008A008A00880
:10107000A008A008C008C008E1100111000901097A
:101080002111211142116219621962198319831900
:101090008319831983198319631963196319421911
:1010A0004219211101110011E110E008E008E008E7
:1010B000C008C008C008A000A000A000A000A000B8
:1010C000C100C100C008C008C008C008C008C008EE
:1010D000E008E008E00800090009000920112011DB
:1010E0002011201120112011201120112011201178
:1010F000201120112011201100090009E008E0084A
:10110000E008C008C008C008C008C008E108C1085D
:10111000C008C000A000A000A000A000A008A00877
:10112000C008C008C008E008E1100111001100115A
:10113000011101110111011100110011E010E01065
:10114000001100110011001100110009000900092F
:10115000000900090009000900090009A008A00809
:10116000A008A008A008A008C008C008A008A008FF
:10117000A008C008E108E11001110111211121119D
:101180004211621982198319A321A321E529E529B6
:10119000052A052A052A052AE529C429C529C429BD
:1011A000A42163214219211101110111E008E00875
:1011B000C008C008C008A000A0008000A000C100B6
:1011C000C100C008C008C008C008E008C008C008C6
:1011D000E008E008000900090011001120112011A9
:1011E0002011201120112011201120112011201177
:1011F000401140114011201120110009E008E008C1
:10120000E008C008C008C008C008C008E108E1083C
:10121000C108C008A000A000A000A000C008C0082D
:10122000C008C008C008E008011101110011001138
:10123000001121112111011100110011E010001104
:101240000011011101110111001100110009000923
:101250000009000900090009000900098000800058
:101260008000800080008000800080008000A00856
:10127000C108E110E110E110011101112111421129
:1012800062198319A321C421E5290532463A473A58
:10129000673A673A673A473A473A263206320532A2
:1012A000E529C429A4218321421901110111E00873
:1012B000C008A008C008C008C008C008C008C1080D
:1012C000C108C108C108E008E008E00801110111E7
:1012D000E008E008E0080009201120112011401169
:1012E00040114011601961196019601940114011D5
:1012F000401140112011201100090009E008E00808
:10130000E008C000C000A000A000A000C000C00015
:10131000A000A000A000A000A000A000A000A008C5
:10132000C008C008E008E008E008E008001100116B
:101330000011001100110011001100110011001125
:10134000001100110011001100110011001100091D
:101350000009E00800090009000900098000800078
:101360006000800080008000800080008000A00875
:10137000C108E110E110E110011102112219431915
:101380008321A421C529E52926322632673A673A06
:10139000683A8842683A683A473A473A473A263ABA
:1013A0000632E531C529A421631942190111E11062
:1013B000C008C008C008E008E008E008E008E1084C
:1013C000E108E008E108E008E008E0080111001188
:1013D0000009000900090011201141114111611992
:1013E00061196119811981198119811961196119AD
:1013F0006119611940114011201100110009E00824
:10140000E008C008C008C000C000C000A000A000E4
:10141000A000A000A000A000A000A000A000A008C4
:10142000C008C008E008E008E008E008001100116A
:101430000011001100110011001100110011001124
:101440000011001100110011001100110011001114
:101450000009000900090009000900096000600096
:10146000600060006000600060008000A008A008CC
:10147000C108C110E110E110021122196319842181
:10148000C521E52906324732673A683A8842A842C0
:10149000A942A942A9428842683A683A6842683A31
:1014A000473A263A0632E529A4218321221901115F
:1014B000E110E008E008001100110011E008E00868
:1014C000E008E00801090009000900090111001104
:1014D0000011001120112111411161198219821985
:1014E0008219A221A221A221A221A221821982195C
:1014F000821961196119411141112111011101096B
:10150000E008E008E008C008C008C00880008000CB
:101510008000800080008000A000A000A000C00823
:10152000C008E008E008E0080011001100110011F7
:101530000011001100110011001100110011001123
:101540000011001100110011001100110011001113
:101550000011E008000900090009000960006000AE
:10156000600040004000600060006000A108A0082A
:10157000C108C108C110E110221943198421A52115
:10158000E6292732473A683AA942A942C94AC94AD4
:10159000CA4ACA4AAA4AA942894289428942884219
:1015A000683A473A273A0632C529A42163194219F5
:1015B00001110111E1100011E008E008E008E00865
:1015C0000009000900090011011121112111211147
:1015D000201121114111411962198219A321A3215E
:1015E000A321A321C321C321A321A321A321A3219B
:1015F000A321A3218219621962194111011101115C
:101600000109E008E008E008E008E0088000800048
:10161000800080008000A000A000A000A008C008FA
:10162000C008E008E00800110011001100110011CD
:101630000011001100110011001100110011001122
:10164000001100110011E010E010E0100011001175
:101650000011E008000900090009000960006000AD
:10166000400040004000400040006000A008A10889
:10167000C108C108E110021142196321A529C62938
:101680000732483A68428942CA4ACA4ACA4ACA4ADA
:10169000CA4ACA4ACA4AAA4AAA4A8942A9428942A5
:1016A0006842483A273A0632E529C429A421832111
:1016B000421921110111E110E008E00800090009B8
:1016C00000090011201120112111211121112111D6
:1016D000411141116219821982198321A321A32189
:1016E000A321C421C421C421A321A321C421C42135
:1016F000A321A321832183196219621921110111E8
:101700000109E008E008C008C008C00880008000A7
:101710008000A000A000A000C000C008A008C00871
:10172000C008E008E00800110011001100110011CC
:101730000011001100110011001100110011E01042
:10174000E010E010E010E010E010E01000110011D7
:10175000E008E008E008E008E00800096000600038
:101760004000200020002000400040008000A00831
:10177000A008C108E110221963218421C629E7319C
:10178000283A69428942AA4ACA4AEB52CA4ACB4A13
:10179000CB4AEB52EB52CB4ACB4AAA4AA94AA942BE
:1017A00089426842483A273A0632C529C529A42108
:1017B00063194219211101110011E00800112011D3
:1017C00020112011201141114111411141114111EC
:1017D00062196219821983218321A321A421A421E2
:1017E000A421A421A421A421A421A421A421A421D1
:1017F000A421A421A421832183196319211121117A
:101800000111E008E008C008C000C000A000A0006E
:10181000A000A000A000C000C008C008C008C00808
:10182000E008E00800110011001100110011001182
:101830000011001100110011001100110011001120
:10184000E010E010E010E010E010E010E010E01018
:10185000E008E008E008E008E008E0086100400077
:1018600020002000200020002000400060008008B0
:10187000A008C110021922196321A429E6310732F8
:10188000493A8A42AA4ACA4AEB52EB52CB4ACB4A5D
:10189000EB52EC52EC52EC52EC52EB52CA4ACA4AAE
:1018A000A94A89428842483A27320632E529C429A2
:1018B0008321631942194219411921114011401124
:1018C0004011401161196119611961196119621999
:1018D000621982198321A321A321A321A421A42178
:1018E000C421C421C421C421A421A421A421A42150
:1018F000A421A421A42184218321831962194219DE
:1019000021110111E108C008C000C000C000A00002
:10191000A000A000A000A000C000C008C008C0082F
:10192000E008E00800110011001100110011001181
:10193000001100110011001100110011001100111F
:10194000E010E010E010E010E008E008E010E0082F
:10195000E008C008C008C008C008C0086100400016
:101960002000200000002000200040004000600017
:10197000A108E110021143198421A5290732283A50
:101980006942AA4ACB4ACB4AEB52EB52CB4AEB52C2
:10199000EC520C530C530C530C53EC52EB52CA4AFE
:1019A000CA4AAA4AA9426842473A2732E531C529BC
:1019B000A421832163216219621962194111611105
:1019C00061116119611982198219821962196219EA
:1019D00082198319A321A321A321A321C421C521F5
:1019E000C529C529C529C529C521A421842184214A
:1019F000A421A421A42184218421832163196219B3
:101A0000421121110109E008C008C000C000C00057
:101A1000C000A000A000A000A000C000C008C00836
:101A2000E008E00800110011001100110011001180
:101A3000001100110011001100110011001100111E
:101A40000011E010E010E010E008E008E008E00815
:101A5000E008C008C000C000C000C0006000400036
:101A60002000200020002000200020004000600016
:101A7000A108E21023114319A5212732483A6942EF
:101A8000AA42CA4ACB4ACB4AEB4AEB52CB4ACB4A90
:101A9000EC520C530C530C53EC52EC4A0C53EB52DB
:101AA000CB4ACA4AAA4A8942683A473A263206329B
:101AB000E529A4218321832183218321821982198D
:101AC000A219A319A321C321C321C3218319A319D7
:101AD000A321A421A421C421C421E521052A052A8A
:101AE000052A052A052AE529E529C529C529C52983
:101AF000C529C429A429A42184218421632163192F
:101B000022190211E110E108C108C008E108C0086B
:101B1000C008A000A000A000C008C008C008C008FD
:101B2000C008E008E0080011001100112111201187
:101B3000001100090009001100112011E010E00857
:101B4000E008C008C008E010E010E010C008E0089D
:101B5000E008E008E000E000E000E0006000400095
:101B60002000200000002000000020002000400095
:101B7000A108021123196419C5212732483A894264
:101B8000AA42CB4AEB4AEB4AEB52EC52CB4AEB4A25
:101B90000C530C532C530C530C53EC520C53EC526F
:101BA000EB4ACB4AAA4AAA42693A483A2732063255
:101BB000E529A421842183218321A321A319A31929
:101BC000A319A319A319A319A319A319A319A41934
:101BD000C421C421C421C421E521E529052A052AFF
:101BE000062A052A062AE529E529E529E529E52920
:101BF000E529C529C529C429A429A429842163214B
:101C0000431922110211E108E108E108E108E008A6
:101C1000C008C008C008C008C008C008C008C00884
:101C2000C008E008E00800110011001121110011A6
:101C30000011E008E008000900110011E008E008C8
:101C4000E008E008C008E010E010E010C008E0087C
:101C5000E008E000E000E00000010001400040007A
:101C600020002000000000000000200020004000B4
:101C70008108031144198421C6292732693A8A420E
:101C8000AA4ACB4AEB4AEB520C530C53EC520C537E
:101C90002C532D5B2D5B2D5B0D530D530C53EC52D0
:101CA000EB4ACB4ACB4AAA428942683A27320632EB
:101CB000E529C429A421A321A321A421A421C4216D
:101CC000C421A319A319A319A419A319C421C421B8
:101CD000E521E521E521E521052A062A062A062A2D
:101CE000062A062A062A062AE629E529E629062AD8
:101CF000E631E631E631E529C529C529842184216B
:101D00006319231902110111E110E1100111E0081A
:101D1000E008C008C008C008E008E008C008C00823
:101D2000E008E008E00800110011001100110011A6
:101D3000E008E008E008E00800090011E010E00811
:101D4000C008C008C008C008E010E010C008E008E3
:101D5000E008E008E000E000000100014100400070
:101D60002000200000000000000000000000200013
:101D70008108031944218521E6292832693A8A42DB
:101D8000AA4AEB4AEB520C530C530C532C532D53D1
:101D90002D5B4D5B4D5B4D5B2D5B2D5B0C530C53F5
:101DA000EB52EB4ACB4AAA4A8942683A27320632BA
:101DB000E629C529C421A421A421C421C421C42108
:101DC000C421C421A319A319C421C421C421E5211C
:101DD000052A052A052A052A262A262A062A062A47
:101DE000262A262A0632062A062AE629063206323C
:101DF000063206320632E631E629E529A529842194
:101E00006421431923190211021102110111011158
:101E1000E110E008E008E008E008E008E008E00879
:101E2000E008E008E1100111011101110111001198
:101E30000011E008E0080009E0080011E010E008E7
:101E4000C008C008C008C008C010E010C008C00822
:101E5000C008E008E000E000E000E00041004000D1
:101E60002000000000000000000000000000000052
:101E70006108E31845218529E7312832693A8A4209
:101E8000CB4AEB4AEC520C530C532C532D5B4D5B5D
:101E90004D5B4E5B4E5B4D5B4E5B2D5B0C530C53B1
:101EA000EC52EB4ACB4AAA4A8942683A27320632B8
:101EB000E629E529C529C529C529C429C421C42184
:101EC000C421C421C421C421C421C421E521E529A0
:101ED000062A062A062A062A262A4732262A262AD9
:101EE000273227322732062A0632062A06320632DF
:101EF00006320632E631E631E631E629C529A5216A
:101F00008421631943192211221122110211011196
:101F100001110109E008E008E008E008E108E10833
:101F2000E108E108E1100111011100110111011195
:101F3000011100110011001100110011E010E00862
:101F4000C008C008C010C010C010C010C008C00831
:101F5000C008E008E000E000E000E00041004100CF
:101F60002000000000000000000000000000000051
:101F70004108C31045218629C731283A493A8A4287
:101F8000AA4AEB4AEC520C530C532C534D5B4D5B5D
:101F90004D5B4D5B4D5B4D5B4E5B4D5B2C530C5372
:101FA000EC52EB4ACB4AAA428942483A07320732FE
:101FB0000632E629E629E529E529E529C421C421D7
:101FC000C421C421C421C421E521E521E521E5295D
:101FD000062A062A062A062A262A4732272A272AD6
:101FE000273227322732273227320632063206328C
:101FF000063206320632E631E631E631C629A5213F
:102000008521641943192311231122112211021170
:10201000011101110109E008E008E008E108E10808
:10202000E108E110E110011101110111011101118B
:10203000011101110111001100110011E010E01057
:10204000C008C008C008C008C008C008C008C00850
:10205000C008C000E000E000E000E00041004100F6
:102060002000000000000000000000000000000050
:102070004100A31024196521C7290832493A694251
:10208000AA4ACB4AEB520C530C532C534D5B4D5B7D
:102090004D5B4D5B4D5B4D5B2D5B2D5B2D5B0C53A9
:1020A0000C53EB4ACB4AAA42693A483A0732073204
:1020B00006320632E629E529E529E529E529E42164
:1020C000E421C421C421C421C421E521E521E5295D
:1020D000052A062A062A062A262A2632272A2732EF
:1020E000273227322732273227322732063206326A
:1020F000073207320732063206320632C629C529B0
:102100008521641943194319231122112211021147
:10211000021101110109E108E008E008E110E110F5
:10212000E110E11001110111011101110111011161
:102130000111011101110011E110E008E010E0109F
:10214000C010C010C010A008A008C008C008C00877
:10215000C008C008C000E000E000E000400040000F
:10216000200000000000000000000000000000004F
:102170002000A21004196521C6290832483A694294
:10218000AA42EB4AEB520C530C532C534D5B4D5B64
:102190004D5B4D5B4D5B4D5B2D5B2D5B2C5B2C5389
:1021A0000C53EB4ACB4A8A42683A283A2732073224
:1021B000063206320632E629E529052A052A052ACD
:1021C000E421C421C421C421C421C421E521E52185
:1021D000052A052A052A062A262A262A272A2732F8
:1021E0002732473227322732273227320732073247
:1021F000073227322732073207320632C629C5296D
:10220000A521641943194319231122112211021126
:10221000021101110109E108E008C008E110E11014
:10222000E11001110111011101110111E110E11081
:10223000E110E110E110E008E008E008E010E01033
:10224000C010C008A008A008A008A008C008C008C6
:10225000C008C008C000E000E000E00061006000CD
:10226000400040002000200000000000000020008E
:102270004108A21003196421A629E631283A693AD7
:102280008A42AA4ACA4AEB4AEB520C530C532C53CB
:102290002C5B4D5B4D5B4D5B2D5B2C5B2C5B0C53CA
:1022A000EB4ACA4AAA428942483A473AE629E6290D
:1022B000E629E529E629E529E529E529E429E421B6
:1022C000C421C421C421C421C421C421E521E5299C
:1022D000052A052A052A262A262A262A473247328F
:1022E00047324732273227322732273227322732E6
:1022F000273227322732273206320632E629A52135
:1023000084198421641923112311631922112211C4
:102310000111010901090009E008E008E1100011BC
:10232000E1100011E110E110E110E110E0080111ED
:1023300001110111E008E008E0080111E010E010CF
:10234000C010C010C010A008A0088008C008C008B5
:10235000C008C008E008E000E000E0008000800065
:10236000600040002000000000000000000020008D
:102370004000A108E2104419A529C5290732283ACE
:10238000683AA942CA4ACA4AEB520B530B532C5320
:102390002C534C5B4D5B4D5B2C5B2C5B2C530B53DC
:1023A000EA4AAA4AA9428842483A473AE629E6292F
:1023B000E629062A062A062A062A052A042AE421EC
:1023C000E421C421C321C321C421C421E421E52186
:1023D000E521052A052A052A052A262A262A262A4B
:1023E000272A262A27322632273226322732263239
:1023F000273227322732063206320632E629A52155
:10240000842184216419431143116319221122117B
:102410002111211101090009E008E0080011001153
:10242000001100110011001100110011E00801114C
:1024300001110111E008E008E008E110E010E010EF
:10244000E010C010C010A008A008A008C010C0086C
:10245000C008C008C000E000E000E000C000A0002C
:10246000800060004000400040004000200040002C
:102470006000A008021143198421C529E62906320B
:10248000473A8842A942C94AEA4AEB52EB520B53F7
:102490000B532C532C5B2C5B2C5B2C530B53EA4AB9
:1024A000C94AA9428842683A473A27320632063278
:1024B000063206320632063206320532252A042A50
:1024C000042AE421E421E4210422042AE421052A47
:1024D000052A052A052A252A252A262A462A462AA1
:1024E000262A462A262A462A26322632263226320C
:1024F0002632263226320632062A062AE529C52148
:10250000A421A4218419631963198319421142116A
:1025100042112111211100090009E008E008E0083A
:10252000E008E008E008E008E008E0080011011118
:1025300001110011E008E008E008E008C008C01040
:10254000C010C010C010A010A010C010C010C0104B
:10255000C008C008C008E000E000E0002109000950
:10256000C000A0008000800080008000800080000B
:10257000A008E01022118319A421C429C529062A24
:102580002732683A8842A942C94ACA4ACA4AEA4A2C
:10259000EA4A0B532B532B530B530B53EA4AC94AAA
:1025A000A94288428842673A473A26322632263282
:1025B0002632263226322632263225324532452A26
:1025C000242A242A242A242A252A252A252A252A97
:1025D000252A252A252A453245324632262A262A08
:1025E000262A262A262A262A262A262A263226325B
:1025F0002632263226320632062A062AC529C52167
:10260000A421A421842183198319831963196219D0
:10261000621941114111211100090009000900113D
:102620000011001100110011001100110011011121
:1026300001110011E008E008E008E008C008C0103F
:10264000C010C010A010A010A010C010C010C0106A
:10265000C008E008C008C000C000E00061094109EE
:102660002009E000C000C000C008C008E008E00881
:10267000001121116219A221C321E429E5290632A2
:102680004632673A883A8842A842A842A942C94AD3
:10269000CA4AEA4AEA4AEA4AEA4AEA4AC94AC84205
:1026A000A84288428742673A473A46322632263263
:1026B0002632263226322532253225324532443220
:1026C000442A242A242A242A452A4532452A452AEE
:1026D000453245324532453245324632462A462A4F
:1026E000462A462A462A462A462A462A263246327A
:1026F000263226322632262A052A052AC521C52158
:10270000C421A421A419A319A319A319A319A319B6
:10271000821982196111611141114011401120117A
:1027200020112011201120112011201141192111F7
:102730002111001100110011E008E008C010C010C4
:10274000A008A008A010A010A010A010C010E010B9
:10275000C008E008E008E008E000E000811181091D
:102760006009400920092009200920112011401189
:10277000401161198119C221E321042A2532263230
:10278000473A673A873A87428842A842A842C942F4
:10279000C94AE94AE94AE94AC94AC94AC84AC8424B
:1027A000A84287428742873A673A463A463A4632D3
:1027B0004632463225322532253225324432442AE9
:1027C000242A242A242A242A442A442A442A442A19
:1027D000452A453245324532453245324632462A4F
:1027E000462A462A46324632463246324632463239
:1027F000463246322632253226320532E521052A76
:10280000E529C421C421E421C421C321C321C3215A
:10281000C321A219A21982198119611961196019BC
:1028200061196119611961196119611961196119D8
:1028300041192111211120110011E010E010C010E8
:10284000C010A008A008A010A010A010C010E01098
:10285000E010E010E008000900090009C211C111F0
:10286000A111A11181118111811981198119811978
:102870008119A221C221E321032A242A2532463AC2
:10288000673A87428742A742A842A842C842C84A3C
:10289000C94AE94AE94AC94AC94AC842C84AC84273
:1028A000A842A742A7428742873A663A663A663A02
:1028B000663A463A463A4532453245324432443227
:1028C000442A242A242A442A443264324432443298
:1028D0004532453265326532453265324632662AC6
:1028E000462A662A46324632463246324632463218
:1028F00046324632463245322532252A052A252AD5
:10290000252A042A042A042A042AE421E421E321B2
:10291000E321C321C221A219A219A119A121A12138
:10292000A121A121A121A121A1218121A2218121D6
:102930006119411941194119211100110111E010CA
:10294000C010A010A010A010A010C010E010E01047
:10295000E010E0100011010921112109021A021AE8
:10296000021AE219E221E221C221C221E221E2217E
:10297000E221E221022A232A432A44324532663ADE
:10298000863AA742A742A742C742C842E84AE84A55
:10299000E84AE84AE84AE84AC842C842E84AC74220
:1029A000A742A742A742A742863A863A863A863A83
:1029B000863A663A653A653A653A65326532643216
:1029C0006432643264326432653285326432643235
:1029D000653265326532653265326532653265323F
:1029E000653265326532653265326532653266322E
:1029F000663266324532453245322532252A453225
:102A00004532242A242A45324432042A032AE32167
:102A1000E321E221E221C221C221C221C121C1213F
:102A2000C121C121C121C221C221C221C221A121B2
:102A300061196119611961194011201121190119D8
:102A4000E010C010C010C010C010E010E010E01086
:102A5000E01000112111211121114111222A222AF5
:102A6000222A222A222A222A222A222A222A222A06
:102A7000222A222A432A433243326332853AA53A34
:102A8000A53AC642C642E642E7420743074B074B18
:102A9000074B074BE742E742E742E742E742E6429D
:102AA000E642E642C642C642C63AA63AA53AA53A28
:102AB000A53AA53AA53AA53AA53AA53A64326432B0
:102AC000643264326432853285328532853A853AA1
:102AD000853A853A853A853A853A853A853285320E
:102AE000853285328532853285326532853285324E
:102AF00085328532653285326532853264326432A0
:102B0000443244324432443243324332232A232A69
:102B1000232A022A022AE229E221E221E121E121FB
:102B2000C121C121C121C121C121C121A121A121D5
:102B3000A121A1198019811980198119411921191F
:102B400020110011001100110011001100110011DD
:102B500000112011201141114111411163326332E2
:102B600063326332633263326332633263326332BD
:102B70006332633283328332A43AA43AA53AA53A47
:102B8000C53AC542E642E64206430643274B264B7A
:102B9000274B064B074B06430643064306430643B3
:102BA000E642E642E642C542C53AC53AC642C54299
:102BB000C642C53AC53AC53AC53AC53AA53AA53A54
:102BC000A53AA53AA53AA53AA53AA53AA53AA53A0D
:102BD000A53AA53AA53AA53AA53AC53AA53AA53ADD
:102BE000A53AA53AA53AA53AA53AA53AA53AA53AED
:102BF000A53AA53AA53AA53A863A853A843A843A5E
:102C0000843A643A64326432633263324332433228
:102C100043322332222A222A022A022A022A022AA2
:102C2000022A022AE229E229E221E221E121C1214C
:102C3000C121C121C121A121A119A11961196119C4
:102C4000411940192011201140114011401140112B
:102C5000401140116111611161116111A43AA43A4E
:102C6000A43AA43AA43AA43AA43AA43AA43AA43A74
:102C7000A43AA43AC43AC43AE43AE542C53AC53A59
:102C8000E53AE5420643064306432643274B264BD7
:102C9000274B264B274B264B264B264B26432643BA
:102CA000064306430643E542E642E542E642E54284
:102CB000E642E542E642E542E542E542C53AC53A2A
:102CC000C53AC542C642E542E642E542E642E54231
:102CD000E642E542E642E542E642E542E53AE53AC9
:102CE000E53AE53AE63AE63AE63AC63AC63AC63A46
:102CF000C63AC63AC63AC63AC63AC53AC53AA53AF7
:102D0000A53AA43AA43A843A843A843A643A643AB2
:102D1000643263326332433243324332432A432ABA
:102D2000432A232A232A222A222A222A022A022A60
:102D3000022A02220222E121E121E221A221A22192
:102D400081218121811961198119811981198119C3
:102D500081198119A119A119A119A119E43AE43A1B
:102D6000E43AE43AE43AE43AE43AE43AE43AC43A93
:102D7000C43AE43AE43AE442E5420543E542054315
:102D80000543064326432643264B264B474B474BDA
:102D9000474B474B464B464B464B464B464B464BA9
:102DA000264B264B2643264326430643064306432B
:102DB000054305430543054305430543E542E54215
:102DC000E542E542E542E542E542E542E542E542CB
:102DD000E542E542E542E542E542E542E542E542BB
:102DE000E542E542E542E542E542E542E642E642A9
:102DF000E642E642E642E642E642E642E542E54295
:102E0000C542C542C542C542A542C542A43AA43AFC
:102E1000843A843A843A843A843A843A6332633214
:102E2000633263326332633263326332432A432A4A
:102E3000432A222A222A222A222A022AE229E229B3
:102E4000C229C229C221C221C121C121C121C1215E
:102E5000C221C221C221C221E221E2210543054350
:102E60000543054305430543054305430543054322
:102E70000543044305432543254325432543254373
:102E800026434643464B464B464B464B664B664BAA
:102E9000664B664B664B664B664B664B664B664BAA
:102EA000664B464B464B464B464B464B26432643CA
:102EB0002643254325432543254325430543054311
:102EC0000543054305430543264326430543054380
:102ED00005430543054305430543054305430543B2
:102EE0000543054305430543054305432643064380
:102EF000064306430643064306430643E5420543AD
:102F0000E542E542E542E542E542E542C53AC43ADA
:102F1000C53AC43AA43AA43AA43AA43A843AA43AA0
:102F2000843A843A84328332843283326332633225
:102F3000633263324332422A432A4332222A023224
:102F40000232022A022A022AE229E229022A022A5B
:102F5000022202220222022A02220222464B454B70
:102F6000464B454B464B454B464B454B464B454BDD
:102F7000454B454B464B664B664B664B664B664B2B
:102F8000664B664B664B664B664B664B864B864B79
:102F9000864B864B864B865386538653864B864B91
:102FA000864B664B664B664B664B664B664B664B79
:102FB000664B664B664B664B664B664B464B464BC9
:102FC000464B464B464B464B464B464B464B464B79
:102FD000464B464B464B464B464B464B454B454B6B
:102FE000464B464B464B464B464B464B4643464369
:102FF000464346432643264326432643064325436A
:10300000064B05430543054305430543E542E542B9
:10301000E542E442E542E43AC542C442C43AC43A15
:10302000C43AA43AA43AA43AA43AA43A843A833AD1
:1030300083328332833263326332633243324332C8
:103040004332433242322232222A222A222A222A9E
:10305000422A422A422A422A422A422A8653865336
:103060008653865386538653865386538653864BA0
:10307000864B864B864B86538653A6538653864B88
:10308000864B864B864B864BA653A653864B864B68
:10309000864BA653A653A653A653A653864B864BE0
:1030A000864B864B864B864B864B864B864B864B98
:1030B000864B864B864B864B864B864B664B664BC8
:1030C000864B864B864B864B864B864B664B664BB8
:1030D000664B664B664B664B664B664B664B664B68
:1030E000664B664B664B664B664B664B664B664B58
:1030F000664B664B664B464B464B464B464B464BE8
:10310000264B254B254B25432543254305430543A6
:10311000054305430543054305430543E542E442B2
:10312000E442E442E43AE43AE43AE43AC43AC43ADF
:10313000C43AA33AA33AA33283328332633A833A3E
:10314000833A833A633A63324232423263326332C1
:10315000633263326332633262326232A653A65301
:10316000A653A653A653A653A653A653A653A65397
:103170008653865386538653A653A653A653A65307
:10318000A653A653A653A653A653A653A653A65377
:10319000A653A653A653A653C653C653A653A65327
:1031A000A653A653A653A653A653A653854B854BA9
:1031B000854B854B854B854B854B854B854B854B8F
:1031C000864B864B864B865386538653854B854B61
:1031D000854B854B854B854B854B854B854B854B6F
:1031E000854B854B854B864B864B864B864B864B5A
:1031F000864B864B864B864B664B664B464B464B07
:10320000464B454B464B454B454B254B25432543AC
:1032100025432543254325432543254305430443AF
:1032200005430443E442E442E442E442E43AE43A3B
:10323000C43AC43AC43AA33AA33AA33AA33A833A63
:10324000A33AA33A833A833A6232623283328332B8
:10325000833282328232823282328232C653C65303
:10326000C653C653C653C653C653C653C653C65396
:10327000C653C653C653C653C653C653C653C65386
:10328000C653C653C653C653C653C653C653C65376
:10329000C653C653C653C653C653C653C653C65366
:1032A000C653C653C653C653C653C653C653C65356
:1032B000C653C653C653C653A64BA64BA653A653D6
:1032C000A653A653A653A653A653A653A653A65336
:1032D000A653A653A653A653A653A653A653A65326
:1032E000A653A54BA54B864B864B864B864B864BF0
:1032F000864B864B864B864B864B864B864B864B46
:10330000664B664B664B664B664B664B664B664B35
:10331000664B664B664B654B664B454B254B454BA9
:10332000454B454B254B0443E442E43AE442E44236
:10333000E442E442E43AE43AC43AC33AC342C34200
:10334000C33AC33AC33AC33AC33AC33AA33AA33AD5
:10335000A332A332A332A332A332C33AE75B065CA3
:10336000E75B065CE75B065CE75B065CE75BE65BEE
:10337000E75BE65BE75BE65BE75BE653E653E6535A
:10338000E653E653E653E653E653E653E653E65375
:10339000E653E653E653E653E653E653E653E65365
:1033A000E653E653E653E653E653E653C653E65375
:1033B000C653C653C653C653C653C653C653C65345
:1033C000C653C653C653A653A653A653A653A653D5
:1033D000A653A653A653A653A653A653A653A65325
:1033E000A553A553A553A54BA54BA54BA64BA64B43
:1033F000A64B864B864B864B864B864B8653865315
:10340000864B864B864B864B864B864B864B864B34
:10341000664B864B664B654B664B654B664B654B07
:1034200066536653664B454B254B24430443044384
:103430000443E442E442E442E43AE33AE342C3426E
:10344000C342C342C342C342C33AC33AC33AC33A74
:10345000C33AC33AC33AC33AE33AE33A275C275C38
:10346000275C275C275C275C275C275C275C275C44
:10347000275C275C275C275C275C275C275C275C34
:10348000275C275C275C275C275C275C275C275C24
:10349000275C275C275C275C275C275C275C275C14
:1034A000275C265C065C265C065C0654E6530654E4
:1034B000E653E653E653E653E653E653E653E65344
:1034C000E653E653E653C653C653C653C653C653D4
:1034D000C653C653C653C653C653C653C653C65324
:1034E000C553C553C553A653A653A653A653A653B7
:1034F000A653A653A653A64BA64BA64BA653A6531C
:10350000A653A653A653A653864BA64B864BA64B53
:10351000864B864B864B854B864B854B8653865315
:103520008653A65386538653654B654B454B2443C0
:1035300025432443244324432443044304430443B2
:10354000E442E342E342E342E33AC33AE342E34282
:10355000E342E33AE33AE33A03430343476447640D
:103560004764476447644764476447644764476403
:10357000476447644764476447644764475C475C03
:10358000475C475C475C475C475C475C475C475C23
:10359000475C475C475C475C475C475C475C475C13
:1035A000475C475C475C475C475C275C265C265C65
:1035B000265C06540654065406540654075C075C01
:1035C000065C065C065CE653E653E653E653E653B8
:1035D000E653E653E653E653E653E653E653E65323
:1035E000E653C653C653C653C653C653C653C653F3
:1035F000C653C653C653A653A653A653C653C65363
:10360000A653A653A653A653A653A653A653A653F2
:10361000A653A653A64BA64BA64BA64BA653A65302
:10362000A653A653A653A65386538653654B654BA4
:10363000654B654B654B654B454B454B244B244BCC
:10364000244B044B04430443E342E342E342E3429A
:103650000343E33AE33A0343034303436764676482
:103660006764676467646764676467646864676401
:1036700068646764686467646864686468646864EC
:10368000686468646864686468646864675C675CEC
:10369000675C675C675C675C675C675C675C675C12
:1036A000675C675C675C675C475C475C475C475C82
:1036B000475C475C475C475C275C275C275C275C72
:1036C000275C275C275C275C275C275C275C275CE2
:1036D000275C275C275C275C275C275C075C065C13
:1036E000065C065CE653E653E753E653075CE75394
:1036F000E753E753C753C653C653C653C653C653BF
:10370000C653C653C653C653C653C653C653C653F1
:10371000C653C653A64BA64BA64BA653A653A653B9
:10372000A653A653A653A653A653A6538553855313
:10373000855385538553654B654B654B654B4553A9
:10374000454B454B244B244B24432443044304431F
:103750000443044324432443244324438864886467
:1037600088648864886488648864886488648864F9
:1037700088648864886488648864886488648864E9
:1037800088648864886488648864886488648864D9
:1037900088648864886488648864886488648864C9
:1037A000686468646864685C685C685C675C675CE3
:1037B000675C675C675C675C475C475C485C486467
:1037C0004864475C475C475C475C475C475C475CD8
:1037D000475C475C475C475C475C475C275C275C11
:1037E000275C275C275C275C075C075C075C075C41
:1037F000075C075C075CE75BE75BE75BE753E75366
:10380000E753E653E653E653E653E653E653E653EF
:10381000C653C653C653C653C653C653A653A65320
:10382000A653A653A653A653A653A6538653855311
:10383000855385538553654B654B654B865366535E
:10384000655365536553654B454B454B454B454B60
:10385000454B454B654B654B454B4543A86CA86CA8
:10386000A86CA86CA86CA86CA86CA86CA86CA86CB8
:10387000A86CA86CA86CA86CA86CA86CA864A864B8
:10388000A864A864A864A864A864A8648864886418
:1038900088648864886488648864886488648864C8
:1038A00088648864886488648864886488648864B8
:1038B0008864886468646864685C685C6864686478
:1038C0006864686468646864686468646864686498
:1038D00068646864686468646864486448644864E8
:1038E00048644864486448644864285C275C275CF2
:1038F000285C285C285C285C285C285C075C075CEA
:10390000075C075C075C075C075C075C07540754AF
:103910000754075407540754E653E653E65BE65B47
:10392000C653C653C653C653C653C653C653C653CF
:10393000A653A653A653A553A5538553A653865302
:10394000865386538653865386538653654B654B01
:1039500085538653864B854B854B654BC86CC86C2D
:10396000C86CC86CC86CC86CC86CC86CC86CC86CB7
:10397000C86CC86CC86CC86CC86CC86CC96CC96CA5
:10398000C96CC96CC96CC96CC96CC96CA864A864E1
:10399000A864A864A864A864A86CA864A864A864BF
:1039A000A864A864A864A864886488648864886437
:1039B00088648864886488648864886488648864A7
:1039C0008864686468646764676468646864686479
:1039D0006864686468646864686468646864686487
:1039E000686468644864486448644864285C285C87
:1039F000285C285C485C485C485C485C275C475C09
:103A0000475C275C275C275C275C275C275C275C7E
:103A1000275C275C275C075C075C075C075C075C2E
:103A2000E75BE75BE65BE65BE65BE65BE65BE65B8C
:103A3000E653E653E653C653C653C653A653A65B96
:103A4000A65BA65BA65BA65BA653A6538653864BD6
:103A50008653A653A653A54B854B854B086D086D21
:103A6000086D086D086D086D086D086D086D086DAE
:103A7000086D086D086D086D286D096DE96CE96CBD
:103A8000E96CE96CE96CE96CE96CE96CE96CE96C8E
:103A9000E96CC96CC96CC96CC96CC96CE96CE96C1E
:103AA000C96CC96CC96CC86CA96CA86CA86CA86CF2
:103AB000A864A864A864A764A7648764A7648664EC
:103AC000865C8764876487648764676488648764C6
:103AD000676467646864686468646764886467646A
:103AE00067648864A86CA86C8864686468646864A7
:103AF00068644864685C685C485C685C675C675CD8
:103B0000675C675C475C475C475C475C475C475C5D
:103B1000485C485C285C285C285C285C275C275C47
:103B2000275C275C275C275C275C275C06540654CF
:103B3000065406540654065406540654A653A65B6F
:103B4000A65BA65BA75BA75BA75BA75BA753A65378
:103B5000A653C653C64BC54BC54BC54B286D286DE8
:103B6000286D086D086D286D286D286D286D286DED
:103B7000286D286D286D286D286D286DE86CE86C1F
:103B8000E86CE86CE86C086D086D087508750875D8
:103B9000E874E874E874E874E874E9740975E96C29
:103BA000E96CE96CE96CC96CC86CC86CC86CC86C11
:103BB000C86CC86CC864C864C864C764A764A764D8
:103BC000C764A764A764A76487648764C86CA86C8B
:103BD000A86CA86CA86CA86CA86CA86CA864876476
:103BE000675C6764676467646764475C68646864AB
:103BF000686468646864685C685C685C885C875C4E
:103C0000875C675C675C675C675C685C675C686472
:103C10006864485C48644864485C485C485C485C4C
:103C2000485C475C475C275C275C475C265C265CFD
:103C3000265C2654265C2654265C065CC65BC65B66
:103C4000C65BC75BC75BC75BC75BE75BC753C75355
:103C5000C653E653E653E54BE54BE54B286D286D1F
:103C6000286D276D286D286D286D286D286D286DAD
:103C7000286D286D286D286D286D4875076D276D96
:103C8000276D276D276D276D277527752775277574
:103C900027752775277507750775077509750975E0
:103CA0000975096D096DE96CE96CE96CE96CE86C02
:103CB000E86CE86CE86CE86CE86CE86CC864E86C8C
:103CC000086DE86CE86CC86CC86CE86CA764A76405
:103CD000876487648764A76C87648764E86CC864BA
:103CE000A764A764C864C86CC86CC86C886487641F
:103CF000876487648864886488648764A864A86427
:103D00008764876487648764886488646864686497
:103D100068646864686448644864686448644864C3
:103D20004864485C4864475C475C475C475C475C68
:103D3000475C475C475C475C275C275C076407641B
:103D4000076407640764085C085C085C085C075C3F
:103D5000075C07540654E6530554E553486D286D37
:103D6000276D276D276D276D286D486D286D286D8F
:103D7000286D486D486D486D48754875476D476DAD
:103D8000476D476D276D276D466D267547754775DD
:103D90002775477527752775277527752875297520
:103DA0002975296D087508750875086D08750875F9
:103DB000096D096D086D086D086D096DC86CE86CBA
:103DC000E96CC86CC86CC86CE86CE86C49752975FE
:103DD00009750975097529750875086DE864E86441
:103DE000E864C764C864C864A864A76CA76CA76CBF
:103DF000A76CA76CA76CA76CA76CA764A864A86441
:103E0000A864A864A864A8648864A86488648864B2
:103E10008864886468646864686468646864686402
:103E20006864686468646864686468646864686432
:103E300068646864686448644864476447644764C5
:103E40004764486428642864286428642864485CBB
:103E5000285C275C275C265C26540654476D476D1A
:103E6000276D276D276D276D476D476D276D276D72
:103E7000476D476D476D4875487547756775677538
:103E8000677567754775477547754775466D47751B
:103E90004775477547754675477547752875287581
:103EA0002875286D286D286D286D286D286D286D62
:103EB000086D086D0875086D096D096D4A7D2A75D4
:103EC0000975E974E974097509750975C86CC86CD8
:103ED000C86CC86CE86CE86CC86CE86C296D296D1E
:103EE000296D296D096DE86CC86CC76CC86CC86C0D
:103EF000C76CC76CC76CC76CC76CC76CC86CC86C28
:103F0000A86CA86CA764A86CA86CA86CA86CA86422
:103F1000A864A86488648864886487648864886402
:103F200088648864886468646864686488646864B1
:103F30006864686468646864686468646764676423
:103F40006764676468646864686448646864686433
:103F500068646864475C475C475C475C47754775C5
:103F60004775476D476D4775477547754775477581
:103F700047754775477567756775677567756775C1
:103F8000677567756775677567756775276D4775B9
:103F900048754775687567754775477547754875FE
:103FA000487548754875487548754875286D286D79
:103FB000287528750975097509750975E974E97415
:103FC000C974C974A974A86CA86CA86CE974C97484
:103FD000C974C974E974EA74E974E974C864E96479
:103FE000096D096D0975097509750975E874E87435
:103FF000E874E774E76CE76CE76CE76CE86CC86C36
:10400000C86CC76CC86CC86CC86CC86CC86CC86C11
:10401000C86CC86CA86CC86CA86CA86CA86CA86CA0
:10402000A86CA86CA86CA86CA86CA86CA86CA86CF0
:10403000A86C88648864886488648864A864A764B9
:10404000A864886488648864686468648864886430
:10405000886468646864685C675C675C67756775DA
:104060006775677567756775677567756775677570
:1040700067756775677567758875887588758875DC
:1040800068756875687568754975497548754875C6
:1040900049756975697D697548754875677567758E
:1040A000677567756875687568756875487528758A
:1040B0002875287529752975097D097DA87C0A8DC3
:1040C0008C958C954C952B8D4C8D6C954C8D2C8DA9
:1040D0002C850C85EB84EB7CCB7CAA740B7D2A7D34
:1040E0000A75E974C974A874C874E974E87CE87442
:1040F00008750875076D276D276D276D086D086DAC
:10410000E86CE86CE86CE86CE86CE86C086D086DCD
:10411000086DE86CE86CE86CE86CE86CE86CE86CDE
:10412000E86CE86CE86CC86CC86CC86CC96CC96C8D
:10413000C96CC86CC86CC86CC86CC864C864C864F6
:10414000C864C864A864A864A864A864A8648864EF
:10415000886488648864886488648864877D8775D7
:1041600087758775877587758775877D8775877567
:104170008775877D877D877DA87D887D8875887513
:10418000897589756975697549754975497549757F
:104190006A7D8A7D8A7D897D697D68756775877589
:1041A00087758775887588758875687548752875E9
:1041B000287D287D297D097D098509852EB6F2D6C1
:1041C000D6EFF7F7D6EF95E7D7EFF8F7F9FFF9F75E
:1041D000D8EFB8E757DF37D7F6CED5C634CFF3C61A
:1041E00091B6EFA56C952B8D0B8D2A8DE97C097D01
:1041F000087D0875286D286D486D4865286D286D07
:10420000286D086D086D086D086D086D286D286DA6
:10421000086D086D086D086D086D086D286D286DB6
:10422000086D086D086D086D096D096DE96CE96C24
:10423000E96CE86CE86CE86CE86CE86CE864E864ED
:10424000E864E864C864C864A864A864A864A8644E
:1042500088648864886488648864886487758775DE
:1042600087758775877587758775877DA77DA77D16
:10427000A77DA77DA77DA77DA77DA77DA775A87D25
:10428000A97D887D68756875897DAA7D8A7D8A7D0E
:104290008A7D8A7D897D897D697D68758775A77529
:1042A000A7758775677567758875887D687D698569
:1042B000287D087D29856A952DAE32D7D5FFF5FF7B
:1042C000F6FFB5F7F8FF96F7B7F7F9FFF9FFFAFF32
:1042D000FBFFFCFFFCFFFDFFFDFFFCFFFAFFF9FF0A
:1042E000F9FFF8F796EF75E796E7B6E72FB60A8578
:1042F000A76C087549756975696D4865486D486DA5
:10430000276D276507652865486D69756975286D8E
:10431000C764E86C2975497549752975E764076DA7
:10432000286D49752975296D296D296DE96CE96C30
:10433000096D296D4975296D086DE864296D286D31
:10434000E86CE864E86C086DE86CE86CC864C86404
:10435000C86CC86CC86CC86CA864A864A77DA77D2D
:10436000A77DA77DA77DA77DC87DC87DA77DA77DEB
:10437000A77DA77DA77DA77DA77DA77DC77DE77DBD
:10438000C87DC87DA87DA97DC985CA85687D897DD0
:10439000897D897DA985C985C985C985A87DC87D8F
:1043A000E885E87DA87D887D6875687D487D68859D
:1043B000088549952DB6F0D673E7D5FF74FF73FFD6
:1043C00095FF13EF10D692DE15EF77FF79FF9AFF76
:1043D000BBFFDCFFDDFFBDFFBDFFDCFFBAFFD8FF89
:1043E000D9FF97FF76F7D8FFF8FF96EFF7F712CFD0
:1043F0000EA68B85E86CE764696DA975686D676DBD
:10440000476D686D686D486D2765E764C764086D22
:1044100069756A7D2975E86CE86C09754975497597
:104420004975296D096D296D2A754A758B7D4A7507
:10443000096DC864C764E864286D6975086D086D06
:10444000086D296D49754975286D086D086D086DF1
:10445000E86CE86CE86CE86CE86CE86CC87DC87DDA
:10446000C87DC87DC87DC87DC87DC885C87DC87D1C
:10447000C87DC87DC87DC87DC87DC77DC67DC67D19
:10448000A67DC67DC77DC885C885A885A885A88561
:10449000A885A87DA785A77DA785A785A77DA87DD9
:1044A000C87DC87DA87DA87DA88588854885EB9DA9
:1044B0006DB6CFCE93EFF5FF73F732EFD1EEB1F6D5
:1044C000F2F6CED5C793F0D5B4EE16F758FF99FFA4
:1044D000BBFFDCFFDDFFBDFF9DFFBCFF99FF57FF6A
:1044E00057FFD5EE73E636FFD8FF75F7F7FFD6F71F
:1044F00094E7F1C6EC956A7D897D6975A975886D2B
:10450000476D476D686D6875487528758A7D497D6A
:10451000297D2A7D4B856B854B854A7D4A7D4A7D69
:104520004A7D2A7D2A750A750B752B75EA6C0B7509
:104530004B7D4B7D6B7D4A7D497D49754A7529755B
:10454000096D086D086D28752875287528752875FA
:104550002875086D086D086D086D086DA77DA77D2D
:10456000C87DC87DC87DC87DC87DC87DC885C88513
:10457000C885C885C885C885C885E785C67DE67DA8
:10458000E685C785C785C785C885C885E98DE98D56
:10459000C985A885A885A785A785A785C885C97D5C
:1045A000A87DA87DA87DA885A985A98D8995EFC638
:1045B000B3EFB4F793FF32F770E60EDE0EE62FE6A8
:1045C0000FE648AC869310DED4F636FF78FF99FFED
:1045D000BAFFDBFFBBFFBCFFBCFFBBFFD9FF36FF51
:1045E00015FF52DE0DBD6FCDD4F635FFD2E633EFA9
:1045F000D5F7F5EF52D7AFB6EC9D2875A87DA87515
:1046000087756775487548754875297D297D097DC9
:104610002A85CD9DD1BE95D7B5DF75D76C8D8D8D93
:10462000CE95CF95CF958E8D6E8D4D85D0958E8DF7
:104630002C85CA74A974E974E97CE9746B7D4A7DA0
:104640002A752975297528752875076D28752875A7
:10465000287528752875286D286D286DA77DA77D7C
:10466000A77DA77DC87DC87DC87DC87DE885E88514
:10467000E885E885E885E885E885E885E885088EA9
:10468000088EE88DC885A885A985AA85898589852C
:1046900089858985A985A98DC98DC98D0A8EEA85E7
:1046A000E985C985A985A9858985698DCA9DEFCECA
:1046B00052EFD0E66FDE0EDECDDDCEE5ADDDEFE50F
:1046C0004CCD65930CC5D3F614FF97FF97FF98FF69
:1046D00098FF98FF98FF98FF99FFB8FFD8FF55FF04
:1046E00055FF92EEABB4E89B4DCDF3FEB2F691E6EA
:1046F000D1E653EF93EF93E7AFC6AA9D2775877D69
:10470000C885A985687D287D49856A8D8B954FB6BA
:1047100033D7B6EFF8F7F8FFF8FFD8EFB8E7F9E7C7
:10472000FAEFFBF7FBF7FBEFFBEFDAE7BAE778D737
:10473000F5C652B611AECFA54D95CA7CEA740A757E
:104740004A7D6B858A85697D2875E66C4775477556
:1047500047754775487548752775476DC87DC87D8D
:10476000C87DC87DC87DC87DC87DC885E885E885C9
:10477000E885E885E885E885E885E885C885A88531
:10478000A885898589856A858B858B856B856B85F1
:104790006B856B856A8549854985497D697D887DFD
:1047A000A97DC985CA8DA98D8985488D8A9D2CBE14
:1047B0002DCECCCDCDD5ADDD4CDD2CDDAEDDEFE5A8
:1047C00089BCA69B91F614FF34FF95FF96FF96FFD8
:1047D00096FF95FF75FF95FF96FFB6FF95FF75FF56
:1047E00095FF34FF6DCDC69B49AC30EEB2FEEEE5D1
:1047F000CDDD6FE632F793FF31EF8EC64785A78593
:10480000A88568854885AA956EB631CFD5EFF6F7AD
:10481000F7FFF8FFB7FF76F794DEF1C5FBFFFCF773
:10482000FCFFFDFFFDFFFDFFFEFFFEFFFDF7FDFFAF
:10483000FCFFFCFFFBFFF9F7F5D631B66C8D4B851D
:104840000A7DE9740875287D487D687D4775477540
:10485000477547754775477547754775C87DC87D66
:10486000C87DC87DC87DC885C885C885E885E885B8
:10487000E885E885E885E885E885C985CB858A856A
:104880006B85AC8D2F9E71AE92AE92AE93AE93AE11
:1048900093AE92AE71AE30A60F9E0E9E8A85897D34
:1048A000897DA985AA85AA8D898D6995499D8AAD3D
:1048B0006AB56BC5ACDD6CDDEAD4EAD4AEE58ED565
:1048C000C79BCABC13FFF2FE33FF33FF53FF73FFD6
:1048D00073F793F793F793F7B3F7B3F773EFB4FF67
:1048E00094FF74FFB1EE89B4C6A30BCD70FEADE5A5
:1048F0008CDD0EEE6FEEB0F6B0EEAEDE889DA88DCC
:10490000678D2785488DEBA511D7F5F7F7FFB6F72B
:1049100014E7B4E6F5EE37FFB5EED3CDBCFFDDFF0F
:10492000DDFFBEFFBEFFDEFFDFFFFFFFBEFFDDFFDF
:104930009CF739E739EFBAF7FAFFF9F713C7B1B6C1
:10494000ED954A85097D287D8985A985677D6775EF
:10495000677567756775677567756775C77DC77DA7
:10496000C77DC87DC87DC87DC885C985C985CA85FC
:10497000AA85AA85AA85AB85AB85AB8D30A6CF9DD0
:10498000B09D53AE57CFFBEFFCF7FCEFFCEFFCEF15
:10499000FDF7FDF7FCF7FBEFFAE7F9E791AE4E9E66
:1049A000CD958B856A858B8D8A958A958A9D6AA51A
:1049B00029AD09B52ACDEACC0BDD8DED8EDD0CC518
:1049C000258BCFDDD3FE91EE12FFD1F6D0EEF1EEC6
:1049D00011F731F751EF51EF71F771F752F7D5FF3A
:1049E00053F712F733FF4BCDA59B27B4B1FEEEED85
:1049F000ADE5CDE56BD54BCDCCDD6ED66895A88DFC
:104A0000A88D888D8995CBA52DBE90CE13E734F760
:104A100015F7D4EED5F616FFF6F676E69CFFDEFF28
:104A2000FFFFFFFFFFFFFFFFDFFFFFFFBEFFDEFF18
:104A30009CFFF9E6B7DE18EF99FFD9FFF9FFF7EF12
:104A400074D7D0BE2EA6CB956985477D677D677DDF
:104A5000677D67756775677567756775E77D288614
:104A6000E77DA67DE785A7858885CA8D6A85CE9D69
:104A70002D8D2D8DD09D53AE57D7B9E7FDF7DCF7BF
:104A8000FDF7FDF7DDF7FDF7FEFFBDEFFFFFFEFFD2
:104A9000FEFFFEFFFEFFFEFFFFFFFEFFFDFF79DFD3
:104AA00078DF98DFB3BE8D950A850A856B956A9D80
:104AB0004A9DE9A4EAB42CCD6DE58EEDD0E52583C1
:104AC000A7938FD551EE51EE0FDE0FDECDD52FE639
:104AD0008FEEAFEEAFEECFEEEFF6D0F612F7B1EE0F
:104AE000F2EEF3F6F2F6EFDD28A4C7A38EE571FE31
:104AF0006DDD8DE5ADDD8CD54BC54ECEEA9D677D78
:104B0000677DC98D698D6995299D278C71DED4F6E5
:104B100011DE32E677FFB5EEF2D579FFDCFFDDFF7F
:104B2000FDFFFDFFDDFFDDFFFDFFFEFFFEFFFEFFE2
:104B30009CFF9BFF92BD58F777FF77FF97FFB6FF6B
:104B4000F7FFF7FF93DF0CA6687D687D887D877D82
:104B5000877D877D887D687588758875E77D28865F
:104B6000E785A57DC785E88DA98D8A8D0B85F0A584
:104B700033B618D7BBE7BCEFFDFFFEFFFFFFBEF764
:104B8000BEFFFFFFFFFFFFFFFFFFFFFFFFFFFFFF76
:104B9000DFFFDFFFDFFFDFFFDFFFFFFF7DEFFEFF58
:104BA000FEFFFDFFDAEF77DF93B6CE9DEA7C4B8DFB
:104BB0006B9D2AA5CAACEBC44DDDAFEDCCC4E57A44
:104BC000C89B8FD510E610E6CFDDCED5ADD5CEDDB6
:104BD0000EE64FE66FEE8FEEAFF6B0F60FDE50E664
:104BE000B2EE30DE0FD6EFD549A4E3822DD592FE8A
:104BF000CFE5EFEDCEDD8DCD0ABDABB5C995A77D77
:104C0000C885C98D6885298D467CC15A28946ECD8A
:104C100011E674EEF6F633DEF2CD79F79AFFBBFFBC
:104C2000FCFFFCFFFBFFDBFFDBFFDCFFBCFFFDFF4E
:104C3000DCFF9BFFF2CD16F7B7FF35FF56FF35FFC0
:104C400075FFF6FF93DF6DAE8985677D887D887D72
:104C5000877D877D887D887D88758875C77D288656
:104C6000E785A67DC885E98DAA8D8B8D34CFB8DF09
:104C7000BAE7FDFFFEFFDDF7FEFFDDF7DEFF7DEFAC
:104C80009DF7FFFFFFFFDEFFDEFFFFFFFFFFFFFFE0
:104C9000DEFFDEFFDFFFFFFFDFFFFFFFBEF7FFFFEF
:104CA000FEFFDCF7FCFFFCFFF9EF76D731AECEA5B7
:104CB0002B95AA94CBAC0DC54EDD4FDD278BA4728E
:104CC0002AA4B0D511E632E6D0DDAED510DEEFDD98
:104CD000CEDDCEDDEEDDEEDD2EE64FEEEFDD10DEDD
:104CE000D3F671E60FD630DEAAB4A37229AC30EE4B
:104CF000EFE5CEDD6CCD6CC50AB569A58885A87DCC
:104D0000C985C985898D6A958784E25A415A868307
:104D10006BACCDB40EBD2FB512CE98FF79FF99FFC5
:104D2000DAFFDAFFDAFFBAFFBAFFBAFF59F7FCFF82
:104D3000DBFF99FF33D632D696FFF4F615FFF4F673
:104D400034EF74EF11CF2CA689858885887D887D06
:104D5000887D887D887D887D887D8875A87DE87DB3
:104D6000C77DA77DC885A8858A8D0E9EF9EFFAEFCD
:104D7000DBEFFDFFDDF7BDF7FFFFFEFFFADE5CEFC7
:104D8000BDF7FEFFFFFFDEFFBDF7FFFFFEFFFEFFEB
:104D9000FEFFFEFFFEFFFEFFFFFFFFFFFFFFFEFF28
:104DA0007CEF5BE7DCF7FCF7FBF7FBFFF9F735D7A8
:104DB00010BE2DADEDB4CCBC6BBC2AB44372A57A49
:104DC000ADB4F2E553EE73EEF1DD8FD5CFDDAFD5A7
:104DD0008ED56DCD6CCD8CCDCED530E671EECFD5E8
:104DE000D3EE34F772E6F0D56AA483726693CFDD12
:104DF000CFDD8DCDC9AC0AAD2AAD699D8885A77D73
:104E0000A87DA885A98DAA952A9D8894867B8783ED
:104E1000C893E99B4BA490C5D5E698FF78FF77FF30
:104E200077FF77FF77F797F798FFB9FF79F7FBFFE1
:104E3000DAFF99FF94DE0DAD14F734F7F4F615F7A9
:104E400034EFF2D62DAE698D487DA985887D887DA9
:104E50008885887D887D887D887D887DE97DA97DA0
:104E6000A87DE985EA8D687DAB8DD1B6F9EFFAEFC3
:104E7000BBEFFEFFDDF7BDFFFFFF5CEF16C67CEF6B
:104E8000FEFFDEFFFEFFFEFFDDFFFEFFFEFFFEFF7B
:104E9000FDFFFDFFFDFFFEFFFEFFFEFFFEFFFEF735
:104EA000BDF7BDF7DDFFDCF7BCF7FCFFFBF7DAF77A
:104EB00078EF94DE4FBD2AA44793068B8572078353
:104EC0008DB430C550CD2FC56CAC4AA4ABB40DBD6C
:104ED0004ECD6ECD4DCD6DCD8ED5CFD552E6AFCD6D
:104EE000B3EE35F7B3E631D68AA4A36A057B4DCD80
:104EF000AED5ADCDA89CE99C4AA56995C98DA77D85
:104F0000A87DA885898528854A95EEB58DBDECAC30
:104F1000ACACCDB42FBD33D6F6E6B5DE15F714F73D
:104F200014F714F734F755F756F757F778F798FF53
:104F300098FFB9FF93E6299451DE75FF35FFF4EE33
:104F400092D60EB68B952885687DA885887D887D4C
:104F5000887D887D887D887D887DA8750B86C97D44
:104F6000C97D2A8E0A8E687DAB8DF2BEFAF7FBF7FB
:104F7000FCF7FEFFBDF79DFF9DFF17CE94B59CEF9C
:104F8000FEFF9CF7BCF7DDFFBDF7DDFFDDFFDDFFBA
:104F9000DDFFDDFFFCFFFDFFFDFFFDFFFDF7FEFF79
:104FA000FEFFBDF71AE77CF7DDFF5AEF5AEF18E76F
:104FB000B6DE54D670C58CACC99B6893E77AE67AA6
:104FC000A993AA93488BA572E259436A0AA40DBD1E
:104FD000D0D5F0DDD0D5CFD56ECDECBC09940994F9
:104FE0000DB58FC5B0C511D68BA4C46A6262299C69
:104FF000CBAC8CBDC99C09956995688DA885A77DAA
:10500000A87DE985CA8D28858B9DD1CE51CECFC58F
:105010006FC590C5D1CD74DEF6E6B4DE92E691E6BA
:10502000B2EED2EEF3EE13EFF4EED4E616EFD5EED9
:1050300016EF57F752D6A7832CB5D2E6F4EE72D608
:10504000AEB54B9D6A8D8A8DA985677D887D887DEB
:10505000887D887D887D887D88758875EA7DEA856C
:10506000C985E985EA85A985CB8D4FAED7DFB8E73D
:10507000BAEFFCFF9CF7DEFF9DFF53B5D5BD7BEF7C
:10508000DCF75AE79BF79CF75BEFBCF7BCF7BCF784
:10509000BCF7BCF7BBF7DBF7DCFFFCF7FDF7BCEFB9
:1050A000FEFFBDF758D6B9E6BDFF7CFF7BF777D68C
:1050B00092B550B550BD2FB5ACAC2BA4898B4883AD
:1050C000CA9BEA9B488303626049636A0DBD11DE97
:1050D000B4F693EE92EEB3EECFD5ABACE151E15125
:1050E000A46A677B6B9CCDACA883A462A36A667B31
:1050F000C7834BAD099D4995898D8885877DC87D7E
:10510000A87DC985EA8D6985CB9D12D7D2DE72D67E
:1051100011D633DEB5E6F6EE17EF36EFB3EE91EECD
:1051200070E670E670E6B1E6B2E6B3E6D4EE94E679
:10513000F5EEF6EE11CEC883E7832CB510CEEFC5A1
:105140008DAD4B956A8DAA8DA985677D887D887DFB
:10515000877D877D887D887588758875A9750A869D
:10516000C97D8875C985EA8DAA8D8B8D33C776DF99
:10517000FAF7FCFFDCFFBCFFB8E68C7B77D6BBF709
:105180009BF75AE7DCF79BF73AE7DDFF9BF79BF7C6
:105190009BF79BF7BAF7BAF7DBF7DBF7FCF7F8D624
:1051A000DCF7FDFF98DE37D67CFFBCFF7BFFD8E63F
:1051B00014CEB1BD4FB5CDAC6BA44BA44CA44CA444
:1051C0002FC5B1D50EBD888BC5724AA411DEF5F688
:1051D00036FFF4F615FF97FFD4EE6EC5A46AE151D1
:1051E000435A8783ACA44B94E67205730994C78B2A
:1051F000867B4BA54A95698D8985687DA87D098642
:10520000A87D6775887D48858B95B0C6D2D672D645
:1052100032D694E658FF17EF75D632CE35FFB2F688
:1052200050E6EED50FD670E6B2EEF4F6F5F6D5EE12
:1052300037F716EF12CE4A94256BE8832CADAEB546
:10524000EEB5AC9D4985497D897DA87D887D877DAA
:10525000877D877D887D887588758875CA7DC97DBD
:10526000C97DC885C885C885A98589852EA6D2BE71
:10527000F9EF98EFBAF7DBFFEC8B8F9C96D679EFBE
:10528000DCFFFDFFDCF7BCF7FDFFDCF7DCF79BF78D
:10529000D8D619E7BAF79AEFDBF7FBF7DAEFFDFF9D
:1052A0007AEFBCFF7BFFF1ACB8E6BCFF7AFF9AFF58
:1052B000B5DE90B54EADCCA46A9CACACACAC6FCDB9
:1052C0006FCDB1D5B4EE32E66FC5D0D5D4F6F4F6D5
:1052D00056FF97FFB7FF76FF34F7F4EEEDB42A9C44
:1052E000CDAC73DE94E64FBD2B94A8832A948FBD7A
:1052F00030CEB1CE6A954985C985A87DC87DA77D88
:10530000C87DA87DC9856985298590BED2D68FBD07
:1053100090C5F2CDEEAC4C94EB832773B0CD92EEFA
:10532000CFD50FDE0FDE10D676FF15F737F758FF13
:1053300079FFBAFFD6E6AD9C098C6EB510C634DF96
:105340004FB64B8D4985697DA985A87D887D887D6F
:10535000877D877D687588758875A875C97DC97DC5
:10536000E87DE87DE885C785A88589858B8D0EA6B3
:1053700055D757E7D6DE34CE69736D9475CE7AEF84
:105380009AF77AEF9BEF97D6D4BDF9DE5BEF9BEFF0
:1053900039E75AEF9AEF9AEFFBFF79EF58DFFCFFFE
:1053A000FBFFBBFFF8EE4D9C31B5BAFF58F757EF46
:1053B00073CED0B5D0BD4DADAB9CABA40DBD8FCDE4
:1053C00090CD11DED4F632DEAFCD72E676FF96FFD9
:1053D00076FF76FF76FFB7FFB6FF76FFD4EE73DE7B
:1053E000B4E615F773DE90C5EEAC6B9C8BA4F0CDE4
:1053F00092D632DFCC9D8985C985A87DA77DA77D02
:10540000C87DA87DC98569854A8DD1C655E7D0BDBF
:105410004FB50EB5077320318239855AADAC32DEF7
:10542000D0D511DE52E692E6F5F690C54C9CEFB46D
:10543000D3CDB6E6B6E6D2C54FADB0BD72CE54DF21
:105440002FB64A8D6A85897DC985887D887D877D4F
:10545000877D677D6775877588758875C97DC97D06
:10546000E87DE87DE77DE77DC785A885CA8DAC9599
:105470000FAE72BE4FA52B84486BEEA413C658E73F
:10548000D7D6109DD094AC732A63D9D67BEF9CF706
:105490007BEFBBF79BEFBBF759E771ADB2AD79EF8F
:1054A0009AF7BAFFF7E62C94897BD5DE98F735DFBB
:1054B00011BECFB531C68EB58A946A9C2DBD8FCDF5
:1054C00090CD11D693EE31DEF1D5F4EE15F756FFFF
:1054D00076FF55F776FFB7FF96FFF4EE14F756FF09
:1054E00077FFF5EE11D6B0C590C50EB52EB552D6E4
:1054F000D3DE53DFECA58985C97DA87DA77DA77D77
:10550000C885A87DA98569858B9532D7D2D652D614
:10551000B5E6F6F60FB5655AE349287371C5F6F698
:10552000B5EE94E6D4EED5EE33DEA98BE351E34934
:10553000086BAEA492BDD2BD12C632C6D3D654D724
:105540000EA62A85697D697D887D6775887D677D62
:10555000677D677567758775886D886DC97DC97D3D
:10556000E87DE87DE77DE77DC77DA885EA8D8B8DA9
:105570006C95CFA5CC94A873E9832FA513BE13BE59
:10558000109DA652874A674A474AD5BDDDFFBDF741
:105590009CF7DDFFDCFFFDFF97D62963E85A4D84B9
:1055A000D3BD38EF95DEAD9CC55A4EA535DFB2CEE2
:1055B000AEA5ADA530BE8EAD8A946A94CCAC4EC576
:1055C0006FC58FC5F1D511D632DED4EED4EE36F7E5
:1055D00056FF35EF56F7D8FFD8FF56F772DEB3E621
:1055E000F4EE93E6D0CDB0C5B1CD4FBDB0CD93DED6
:1055F000B2DE12DFAB9D487DA97DE97D877DA77D69
:10560000E885A87DA9856985AB9594DFD3D6B4DEFE
:10561000D5EE17F795E651BDEFACB2C5D7EEFBFF5F
:1056200079FF17F737F737F753DEEA8B8562623970
:10563000665AAF9C92B5B1B533C6D4D614D774D7D9
:10564000EE9D297D697D6875687567758775677DCD
:10565000677D677567756775876D886DAA85C97D74
:10566000C97DE87DE77DE77DC77DC87D887D8A852A
:105670006B8DEFA5CFADAB8CCC94CD940F9D75CE3B
:10568000DBF772AD4A6B2A632F849DF7FFFFFEFFA5
:10569000DEFFFEFFFEFFFEFFD9DE8B6B464AA852FF
:1056A000F0A4B6DEB2BDCD9C4563CA8C0FAECEA5CC
:1056B0004B958C9D50BECEB5AB9C8B9C2A9C0EBD51
:1056C0004FC52EBD90C532DE74E673E633D612D6D2
:1056D000B0C56FB590BD53D636EF97FFF3EE71DED0
:1056E00071DE72DEF1D5B0CD90C54FC5D1CD73DE80
:1056F00092DE33DFCCA5487D887DC97D877DA77D7F
:10570000C885877D887D6985CC9DB5E714DF93DEEC
:1057100033D675E6D7EE76E676DE19F75AF7BBFF95
:105720009AFF79FFB9FFB9FF37F7F3CD10AD2D948C
:1057300030ADD7E637E7D5D6F5D615DF75DFB5DF5F
:105740002EA64A7D8A7D68758875A87D6775677DF8
:10575000677567756775676D876D876DAA85AA859B
:10576000C985E87DE87DE77DE77DC87DA985AA85B7
:105770006B8D8D9572BED0AD6FA5ED9CF6D6D6D64D
:10578000FBFF79EFD8DE7BEF5CEF9DF7DEFFFFFFDD
:10579000FFFFFFFFDEFFFEFFDDFF16C633ADD2A425
:1057A00097DE18EF50AD8C9449848D9D2A8D6B95B2
:1057B0004B95AD9D71C610BEAB9C2A94EA938DACFF
:1057C0000FBD2FBDB1CD95EED5EE53DE6C9CCA83D7
:1057D000687B687BA97B2B8C70B5D5E675FF50DEA6
:1057E000EFCD10D6AFCD4EBD2FBD4FC590CD52DE03
:1057F000D3E6B5EF4EB68A8D887DA87D877D877DFF
:10580000A885677D887D6985AB9D94E7D2D6F0C574
:1058100012D617F759FF97E696E639F7DCFFBCFF7B
:10582000BBFFFBFFFBFFFAFF99FF17EFD7E618EF6F
:1058300079F779EF37E777E777E735D795DF94D7CB
:10584000ED9D4A7D8A7D48756875A87D8775677D61
:10585000677D677567756775876D886DAB85AA8588
:10586000CA85C97DE87DE87DE87DC87D0A8EAB8567
:105870006B852C8DD3C652BE8FADB0ADB5D695CE4F
:1058800038E79AEF7BEFBCF7DEFFBEF7BEF7FFFF0E
:10589000BFFFFFFFDEFFDEFFFFFFBEFFBFFF7DFF9D
:1058A000DEFF19EFD2BDAC940C952FB64A8DAC95A6
:1058B0006B8D8C9D91BE51C6ED9CEA8BEA93EB9B60
:1058C0008DAC71C533DEB6EED6EE54DE8983655AF3
:1058D0000452A662C662C6626D94B4DE55FF70DEE5
:1058E000EFD5EFCD4EBDCCB4EDBC2FC590CD52DE83
:1058F000D3E6F7FFB0C6AA95887DA87D877D877D12
:10590000877D6775687D4985AB9574DF92CE4EB50E
:105910004FBDF3D514DE55DE19F77BFFBCFF9BF7B7
:105920009BF79AF7B9FFB9FF58F717EF38EFDAFF8F
:1059300099F795D694CEF5D615D714D795D733C702
:105940008C8D09758A7D4875477587758775677D64
:10595000677D677567756775886D886DAB85AA8586
:10596000CA85C985E87DE87DC87DC87DC97D8A7DF9
:10597000CC8DAD9576D793BE4F9DD1B574CEB5D6AF
:10598000D7DEBBF7FDFF5BEF9DF7FFFFFFFFFFFFDC
:105990007DF7DEFFFFFFBDF7DEF7BEFF7DFFBDFF3A
:1059A0005BF735CE54CE0D9D4C954FAE6A8DEC9580
:1059B0006A854A8D70BEB3CE6FB58C9CEA936983BD
:1059C0002B9C92CD75E6B6E696E634D68A7BC3412B
:1059D0000029A239A239A239CB83F6E655F7F3EEB6
:1059E000B2E651DE4EBDACACCDB4EEBCB0D553DEAC
:1059F000D3E6F6FFB0C6AB956985A985877D877D1F
:105A0000877D4775687D48858A9553D730BE2DAD13
:105A10002EB550BD92C518F7FCFF3AEFB8DE97D609
:105A200097D696D6F8E699F779F778F7B6DE79F74C
:105A300038EFD6DED5D694CE72C6F4CEB5DF33C7F6
:105A40006B850875CA8589756875677588758775EA
:105A5000677D6775687568758875886DCA85CA853C
:105A6000C985C985C885C885C87DC87DC985A97D02
:105A7000CB856B8554CFD4C6B1AD90AD33C6F3C5DD
:105A800096D659EF7AF75BEFBCF7DDFF5BEFF6BD1B
:105A90009194D19458CEDDF7FEFFDDFF7BF79BFF9D
:105AA00039EFD7DEB1B5CC8CAD9D6FAEAB8DAA858D
:105AB000AA8DAB95EDA5B2CE11C62A8C2B94EA9394
:105AC0004B9C2FB533D675DEF3C551ADCB83E34187
:105AD00021292129C020875A51B554CED5E6F5E6B3
