:020000040800F2
:1000000060060020B1010008B9010008BB0100082A
:10001000BD010008BF010008C10100080000000088
:10002000000000000000000000000000C301000804
:10003000C501000800000000C7010008C901000850
:10004000CB010008CB010008CB010008CB01000860
:10005000CB010008CB010008CB010008CB01000850
:10006000CB010008CB010008CB010008CB01000840
:10007000CB010008CB010008CB010008CB01000830
:10008000CB010008CB010008CB010008CB01000820
:10009000CB010008CB010008CB010008CB01000810
:1000A000CB010008CB010008CB010008CB01000800
:1000B000CB010008CB010008CB010008CB010008F0
:1000C000CB010008CB010008CB010008CB010008E0
:1000D000CB010008CB010008CB010008CB010008D0
:1000E000CB010008CB010008CB010008CB010008C0
:1000F000CB010008CB010008CB010008CB010008B0
:10010000CB010008CB010008CB010008CB0100089F
:10011000CB010008CB010008CB010008CB0100088F
:10012000CB010008CB010008CB010008CB0100087F
:1001300000F002F800F02CF80AA090E8000C8244CD
:100140008344AAF10107DA4501D100F021F8AFF2AA
:10015000090EBAE80F0013F0010F18BFFB1A43F0A5
:1001600001031847E4080000F408000000230024FD
:1001700000250026103A28BF78C1FBD8520728BFB7
:1001800030C148BF0B6070471FB51FBD10B510BD13
:1001900000F031F81146FFF7F7FF00F023FA00F006
:1001A0004FF803B4FFF7F2FF03BC00F057F800006C
:1001B0000948804709480047FEE7FEE7FEE7FEE7FB
:1001C000FEE7FEE7FEE7FEE7FEE7FEE70448054937
:1001D000054A064B7047000065050008310100081C
:1001E0006000002060060020600200206002002005
:1001F000704770477047754600F02CF8AE46050012
:100200006946534620F00700854618B020B5FFF731
:10021000DDFFBDE820404FF000064FF000074FF033
:1002200000084FF0000B21F00701AC46ACE8C00914
:10023000ACE8C009ACE8C009ACE8C0098D4670471D
:1002400010B50446AFF300802046BDE81040FFF72C
:10025000A8BF000000487047000000200149182096
:10026000ABBEFEE726000200704770B506460024CC
:1002700010E0002000F0A4F8204600F0ADF80025C2
:1002800004E0FF2000F084F8681CC5B2802DF8DB84
:10029000601CC4B2082CECDB70BD70B504460025B0
:1002A00011E0002000F08CF8284600F095F80026B8
:1002B00005E0207800F06CF8641C701CC6B2802E3B
:1002C000F7DB681CC5B2082DEBDB70BD10B5002054
:1002D000214908602149C1F8B001FA2000F072F903
:1002E00001201D49091D0860FA2000F06BF9A420C7
:1002F00000F036F8A62000F033F8A02000F030F827
:10030000402000F02DF8C82000F02AF8012000F06D
:1003100059F9262000F024F8812000F021F801206E
:1003200000F01EF8A32000F01BF82C2000F018F8B5
:100330002E2000F015F82F2000F012F8012000F018
:1003400041F9AF2000F00CF80020FFF78EFF0120EC
:100350000249C1F8AC0110BDAC81214200802142AC
:100360000021084A1160084AC2F8B4110749C86060
:100370000021044A0C32116001211160014A116010
:1003800070470000AC8121420080214200100140F2
:100390000021084A11600121074AC2F8B411074937
:1003A000C8600021034A0C32116001211160014A2A
:1003B00011607047AC812142008021420010014051
:1003C00000B50346102141EA2310FFF7C9FF03F0EF
:1003D0000F00FFF7C5FF00BD00B5034603F00F0196
:1003E00041F0B000FFF7BCFF00BD10B500F002F80F
:1003F00010BD00000CB50020019000903548006849
:1004000040F480303349086000BF3248006800F48F
:10041000003000900198401C0190009818B9019894
:10042000B0F5A06FF1D12B48006800F4003010B196
:100430000120009001E0002000900098012848D1A0
:100440002548006840F0100023490860084600680D
:1004500020F0030008600846006840F001000860D2
:100460001C4840681B494860084640684860084688
:10047000406840F4806048600846406840F440406E
:1004800048600846406820F47C1048600846406890
:1004900040F4881048600846006840F080700860AA
:1004A00000BF0C48006800F000700028F9D009482F
:1004B000406820F00300074948600846406840F063
:1004C0000200486000BF0348406800F00C000828A4
:1004D000F9D10CBD00100240002002401D48806987
:1004E00040F010001B4988611B48006840F0333021
:1004F000194908600846006800F0333008604FF67C
:10050000FF70C8601348806940F008001149886195
:100510001248006840F0333010490860084600680F
:1005200000F0333008604FF6FF700C490831086066
:100530000848806940F0040006498861084800685E
:1005400040F00300064908600846006820F00C00EF
:10055000086070470010024000100140040C014088
:100560000408014010B51348006840F0010011492B
:10057000086008464068104908400E49486008462F
:1005800000680E4908400B4908600846006820F4DE
:10059000802008600846406820F4FE0048604FF460
:1005A0001F008860FFF721FF4FF0006004490860DA
:1005B00010BD0000001002400000FFF8FFFFF6FE33
:1005C00008ED00E001B509E0002000E0401C41F624
:1005D0003D718842FAD30099491E00910099002983
:1005E000F2D108BDFFF77AFF00F018F8FFF76EFEB2
:1005F0000748FFF752FE09E006480068C043064975
:10060000C1F8A0014FF4FA70FFF7DCFFF4E7000037
:1006100048060008A00121420000214208488069E4
:1006200040F00100064988610648406820F0E0601B
:10063000044948600846406840F0007048607047D0
:100640000010024000000140FF1115111F010101BF
:10065000010101010101010101010101010101018A
:10066000010101010101010101010101010101017A
:10067000010101010101010101010101010101016A
:10068000010101010101010101010101010101C19A
:10069000010101010101010101010101010101014A
:1006A000814141212121212141418101010101019A
:1006B000010101010181414121212121214141818A
:1006C0000101011F111511FFFF00000000000000D3
:1006D000F8F80000000000000000F8F8000000003A
:1006E000000000000000000000000000FCFC000012
:1006F0000000FCFC00000000000000000000000002
:10070000000000000000000008081828E808078022
:100710000708E8281808080000000000E01C020193
:10072000000000000000000000000001020418604A
:10073000601804020100000000000000000000003A
:1007400001021CE0000000FFFF00000000000000AC
:10075000FFFF0C0C0C0C0C0C0C0CFFFF000000F845
:10076000FC3633333333373E3C000000FFFF0000DC
:100770000000FFFF000000F8FC0E07030303030660
:10078000FEF8000000000000000000070202010067
:10079000010202070000000000000000077880004E
:1007A0000000000000000000000000000000000049
:1007B0000000000000000000000000000000000039
:1007C00000807807000000FFFF000000000000002C
:1007D000070700800000000000808787800000007D
:1007E00003038686868686030000000007070080D4
:1007F00080000707808080808383070606060683C3
:1008000081808000008080808080808000000000E7
:1008100000808080800000000000000000000106D1
:1008200008304080000000000000000000000000D0
:1008300000000000000000000000000080403008C0
:1008400006010000000000FFFF00000000000000A3
:100850000201FFFF000000000180C060313F0F0077
:100860000001101010192FE7C080E0B0988E83FFB0
:10087000FF8080001F1F101030E0E000FCFE2311FD
:100880001030F0E000000080F07E0F010000C0E7B3
:100890002F181038EFC70000000000000000000013
:1008A0000000000001020408081020404080800081
:1008B0000080804040201008080402010000000071
:1008C00000000000000000FFFF000000000000002A
:1008D00000000707000000000707844484040400A8
:1008E00000020404040406030100000000000007E5
:1008F00007000000020404040603010001030604CB
:1009000004060301000000070700000000808103C7
:1009100006040406030100000000000000000000BF
:1009200000000000000000804020F00000000001F6
:1009300001000000000000000000000000000000B6
:1009400000000000000000FFFF00000000000000A9
:1009500000000000008060100C02010001020C1079
:100960006080000000000000000000FE01010101A5
:100970000101010101010101010101FE000000006E
:10098000000000000010304848840202010000010D
:1009900002028448483010000000000000000000FF
:1009A000000818244281810000000081818181813A
:1009B00081818181FF000000000000000000000034
:1009C00000000000000000FFFF88A888F8808080F9
:1009D00080808084878484848484848484848484E0
:1009E00084848784808080808080808382848484E3
:1009F00084848484848484848484828380808080CA
:100A000080808080808080808080818182848482D8
:100A100081818080808080808080808080808080D4
:100A2000808080808080808182848F8080808080B0
:100A300080808080808080808080808080808080B6
:100A4000808080F888A888FF580A000800000020ED
:080A5000600600006C010008C3
:0400000508000131BD
:00000001FF
