:020000040800F2
:1000000060060020B1010008B9010008BB0100082A
:10001000BD010008BF010008C10100080000000088
:10002000000000000000000000000000C301000804
:10003000C501000800000000C7010008C901000850
:10004000CB010008CB010008CB010008CB01000860
:10005000CB010008CB010008CB010008CB01000850
:10006000CB010008CB010008CB010008CB01000840
:10007000CB010008CB010008CB010008CB01000830
:10008000CB010008CB010008CB010008CB01000820
:10009000CB010008CB010008CB010008CB01000810
:1000A000CB010008CB010008CB010008CB01000800
:1000B000CB010008CB010008CB010008CB010008F0
:1000C000CB010008CB010008CB010008CB010008E0
:1000D000CB010008CB010008CB010008CB010008D0
:1000E000CB010008CB010008CB010008CB010008C0
:1000F000CB010008CB010008CB010008CB010008B0
:10010000CB010008CB010008CB010008CB0100089F
:10011000CB010008CB010008CB010008CB0100088F
:10012000CB010008CB010008CB010008CB0100087F
:1001300000F002F800F02CF80AA090E8000C8244CD
:100140008344AAF10107DA4501D100F021F8AFF2AA
:10015000090EBAE80F0013F0010F18BFFB1A43F0A5
:10016000010318471815000028150000002300247B
:1001700000250026103A28BF78C1FBD8520728BFB7
:1001800030C148BF0B6070471FB51FBD10B510BD13
:1001900000F031F81146FFF7F7FF00F0F7F900F033
:1001A0004FF803B4FFF7F2FF03BC00F057F800006C
:1001B0000948804709480047FEE7FEE7FEE7FEE7FB
:1001C000FEE7FEE7FEE7FEE7FEE7FEE70448054937
:1001D000054A064B70470000F9030008310100088A
:1001E0006000002060060020600200206002002005
:1001F000704770477047754600F02CF8AE46050012
:100200006946534620F00700854618B020B5FFF731
:10021000DDFFBDE820404FF000064FF000074FF033
:1002200000084FF0000B21F00701AC46ACE8C00914
:10023000ACE8C009ACE8C009ACE8C0098D4670471D
:1002400010B50446AFF300802046BDE81040FFF72C
:10025000A8BF000000487047000000200149182096
:10026000ABBEFEE726000200704700002DE9F0411A
:100270000746884614463E4608F1B001C8B200F071
:10028000EBF8102141EA241000F0E6F804F00F002A
:1002900000F0E2F80FE000250AE03178203901EBA8
:1002A0008101074A1144485D00F0FCF8681CC5B2A2
:1002B000062DF2DB761C30780028ECD1BDE8F08109
:1002C000A014000810B50446102141EA241000F0E3
:1002D000C3F804F00F0000F0BFF810BD10B500F037
:1002E00001F810BD0CB50020019000903548006861
:1002F00040F480303349086000BF3248006800F4A1
:10030000003000900198401C0190009818B90198A5
:10031000B0F5A06FF1D12B48006800F4003010B1A7
:100320000120009001E0002000900098012848D1B1
:100330002548006840F0100023490860084600681E
:1003400020F0030008600846006840F001000860E3
:100350001C4840681B494860084640684860084699
:10036000406840F4806048600846406840F440407F
:1003700048600846406820F47C10486008464068A1
:1003800040F4881048600846006840F080700860BB
:1003900000BF0C48006800F000700028F9D0094840
:1003A000406820F00300074948600846406840F074
:1003B0000200486000BF0348406800F00C000828B5
:1003C000F9D10CBD001002400020024008488069AD
:1003D00040F01000064988610648006840F033305C
:1003E000044908600846006800F033300860704730
:1003F000001002400010014010B51348006840F0A2
:1004000001001149086008464068104908400E493B
:100410004860084600680E4908400B4908600846D5
:10042000006820F4802008600846406820F4FE0040
:1004300048604FF41F008860FFF750FF4FF00060E6
:100440000449086010BD0000001002400000FFF8E1
:10045000FFFFF6FE08ED00E001B56A461C2303EB42
:10046000421202F1085100220C4B1A60002012E0E7
:100470000A780A4B08331A600022094BC3F88C2112
:100480000122064B1B1D1A609DF800205206120E19
:100490000092421CD0B20828EADB08BD8801224243
:1004A0000000224201B56A461C2303EB421202F10E
:1004B000085101220C4B1A60002012E00A780A4B06
:1004C00008331A600022094BC3F88C210122064B25
:1004D0001B1D1A609DF800205206120E0092421C4D
:1004E000D0B20828EADB08BD88012242000022427F
:1004F00001B509E0002000E0401C41F63D71884252
:10050000FAD30099491E009100990029F2D108BD43
:1005100010B501201B49086000201B49C1F880016B
:100520001849083908604FF49670FFF7E1FF012081
:100530001549C1F884014FF49670FFF7D9FFE22006
:10054000FFF78AFF2C20FFF787FF2E20FFF784FF9D
:100550002F20FFF781FFAF20FFF77EFF2520FFF759
:100560007BFFC020FFF778FF8120FFF775FF292070
:10057000FFF772FFB020FFF76FFFAF20FFF76CFFB0
:1005800010BD00008C01224200002242FFF71EFF36
:10059000FFF7BEFF074800F015F82822032141208D
:1005A00000F02AF80A22052103A0FFF75FFE00BF32
:1005B000FEE700004006000861626368313233469E
:1005C00053444600F0B505462E46B02411E02046BF
:1005D000FFF742FF0020FFF775FE002705E03078A7
:1005E000FFF760FF761C781CC7B2802FF7DB601C1A
:1005F000C4B2B82CEBDBF0BDF0B506460F4614468E
:1006000007F1B001C8B2FFF727FF102141EA24101B
:10061000FFF722FF04F00F00FFF71EFF00250AE09E
:10062000A6F1200101EB8101044A1144485DFFF766
:1006300039FF681CC5B2062DF2DBF0BDA01400081E
:10064000FF0101010101F9090909098909090909DC
:10065000090909090909090909090909090909090A
:1006600009090909090909090909090909090909FA
:1006700009090989890909090909090909090909EA
:1006800009090909090909090909090909090909DA
:10069000090909090909090909890909090909094A
:1006A00009090909090909090909090909090909BA
:1006B000090909092B1D090101010101010101FFBE
:1006C000FF0000000000FF0000000000030C30C02D
:1006D000000000000000000000000000000000001A
:1006E000000000000000000000000000000000C04A
:1006F000300C0300010618608000000000000000BC
:1007000000000000000000000000000000000000E9
:100710000000000000C0300C0300000000000000DA
:1007200000000000000000000000000000000000C9
:10073000000000000000000000000000000000FFBA
:10074000FF0000000000FF000000000000000000AB
:10075000030C10608000000000000000000000009A
:100760000000000000000000000000C0300C03008A
:10077000000000000000000001061860800000007A
:100780000000000000000000000000000000000069
:1007900000C0300C0300000000000000000000005A
:1007A0000000000000000000000000000000000049
:1007B000000000000000000000000000000000FF3A
:1007C000FF0000000000FF0000000000000000002B
:1007D0000000000001020C3040800000000000001A
:1007E000000000000000C02018060100000000000A
:1007F00000000000000000000000000000030C30BA
:10080000408000000000000000000000C02018062A
:1008100001000000000000000000000000000000D7
:1008200000000000000000000000000000000000C8
:10083000000000000000000000000000000000FFB9
:10084000FF0000000000FF000000000000000000AA
:100850000000000000000000000001020408080879
:100860000808080402010000000000000000000069
:100870000000000000000000000000000000000078
:100880000000010204040808040202010000000044
:100890000000000000000000000000000000000058
:1008A0000000000000000000000000000000000048
:1008B000000000000000000000000000000000FF39
:1008C000FF00000810207F2010080000000000003A
:1008D0000000000000000000000000000000000018
:1008E0000000000000000000000000000000000008
:1008F00000000000000000000000000000000000F8
:1009000000000000000000000000000000000000E7
:1009100000000000000000000000000000000000D7
:1009200000000000000000000000000000000000C7
:10093000000000000000000000000000000000FFB8
:10094000FF0000F0F81C0C0C1CF8F0000000000088
:10095000FCFCFC000000001C3C7CECCC8C8C0C00F3
:1009600000180C8C8C8CFCF870003070F0B03030BB
:10097000FCFC303000080C0C0C0CFCF8E00000F023
:10098000F89C0C0C1CF8F0000000043CFCE000009B
:1009900000000078F88C8C8C9CF878000088CCCC17
:1009A000CCCCB8F0E00000C0201008080408081003
:1009B00020C000000000000000000000000000FF58
:1009C000FF80808F9FB8B0B0B89F8F8080808C9858
:1009D0009FBFBF808080808090B0B0B1BF9F8E806D
:1009E0008080B0B1B1B1BF9E8080808081838E9CB9
:1009F000BFBF80808080BFBFB3B3B3B1808080832E
:100A00008F9DBBB3B3B3818080B0B0B0B0B3BFBC77
:100A1000B880808C9EBBB1B1BB9E8C80808F9FB90B
:100A2000B0B0B99F8F808F90A0A0A0988498A0A00C
:100A3000A0908F808080808080808080808080FFF8
:100A400000000000000000000000000000000000A6
:100A50000000000000000000000000000000000096
:100A600000000000002070707020000000000000F6
:100A70000000000000000000000007060000000069
:100A800000000000000001073EF0C0000000000070
:100A9000000000000E3CF08000000000000000009C
:100AA0000000010302060404040602030100000022
:100AB0003FFFC0000000000000000000E0FF1F003A
:100AC000C0E038180C04040404040C1870E0800022
:100AD0000000000000010307070000000000000004
:100AE00000000080808000FFFF0000000000000088
:100AF00000000000000000F8F80000000000000006
:100B000000000303060404040406020301000000BD
:100B100000C0C0000000000103020E1CF0E0000055
:100B2000040C1C342464C48404040404040400007D
:100B3000000004040404040404040507060400007F
:100B4000000000000000001070F098080C0703007F
:100B50001018080C0404040404040C0838F0C00045
:100B60000000000000000000010707000000000076
:100B70000103060C183060C080FFFF000000000079
:100B8000808080808080808080F8F88080808000F5
:100B90000001070604040404040404040400000023
:100BA00000F8F81010302020301010180C07030047
:100BB0001018080C0404040404040C0838F0C000E5
:100BC0000000000103020604040406020301000001
:100BD000007FFF8C080818101018080C0607010089
:100BE00000E0F018080C040404040C0838F0C000FD
:100BF00004040404040404040404040405070600B3
:100C00000000000000000001070E38F0C0000000E6
:100C100000000000083870C08000000000000000E4
:100C20000001030206040404040406020301000098
:100C300001E3F6141C18080818181C34F7C3000048
:100C4000F0F8080C040404040404040C18F0E00098
:100C50000001030202060404060203010100000071
:100C600078FC8602030101010103028EFF7F000070
:100C70000010180C04040404040C1870E080000038
:100C8000000000000003030000000000000000005E
:100C9000FFFFCCCCCCFFFFCCCCCCFFFF0000000092
:100CA000E0E0C0C0C0F8FCCCCCCCCCFC3C300000B8
:100CB0000001010101010101010101010101000027
:100CC00000FFFF86868686BFBF86868686800000F8
:100CD0007EF88C0C0C0C0CFCFC4CCCEC4C0C00008E
:100CE00003030100000002030300000000000000F5
:100CF000309B11C8DDFDFCEDCDCDFDDCCE04000048
:100D0000FEFC840EFCF000FEFEF8FE067E380000BD
:100D100003010000010101010101010100000000C7
:100D2000389D8801FDFDADADADADADFD010000000C
:100D3000FCFC0CFCFC8CFCFC8CFC8CFCFC0C00001B
:100D4000000000000000030300000000000000009D
:100D5000FFFFD8D8FFFFDBDBDBDBFFD8D8C000000C
:100D6000FEF80666767E6E6C6C7E7E76060400006B
:100D70000000000000000000000000000000000073
:100D8000000000F0FE7F0F00010FFFFCE0000000FC
:100D90000000000000C0F8F8F8F08000000000003B
:100DA0000000000000000000000000000000000043
:100DB0000000000000040E0E0E0400000000000001
:100DC000000000000010383838100000000000005B
:100DD0000000000000000000000000000000000013
:100DE0000000001F00000000000000CC0000000018
:100DF0000008304008304000000000000000000003
:100E00000002031E02031E000020FC2020FC200024
:100E1000000E11113F100C0000180404FF8478002C
:100E20000F100F0106180000008C30C07884780085
:100E3000000F10110E0000007884C43498E4840878
:100E400000487000000000000000000000000000EA
:100E50000000000718204000000000E01804020015
:100E6000004020180700000000020418E000000005
:100E70000202010F01020200404080F08040400069
:100E8000000000000700000000808080F08080806B
:100E900000404020000000000000000000000000B2
:100EA0000000000000000000008080808080800042
:100EB0000000000000000000000C0C00000000001A
:100EC00000000000031C2000000618E000000000E5
:100ED000000708101008070000F008040408F000DC
:100EE000000008081F00000000000404FC040400C7
:100EF000000E101010100F00000C142444840C007D
:100F0000000C101010110E000018048484443800E6
:100F1000000001020C1F00000060A02424FC242417
:100F2000001F1111111010000098040404887000B3
:100F3000000708111109000000F088040404F800FB
:100F400000181010111618000000007C800000002E
:100F5000000E111010110E00003844848444380033
:100F6000000F101010080700008048444488F0006B
:100F700000000003030000000000000C0C00000053
:100F80000000000100000000000000070000000059
:100F90000000010204081000008040201008040036
:100FA00000020202020202000040404040404000B5
:100FB0000010080402010000000408102040800016
:100FC000000E121010110E000000000CEC000000CA
:100FD000030C131417080700E018E414F414E800D5
:100FE0000000031C07000000043CC44040E41C0453
:100FF000101F1111110E000004FC0404048870007D
:10100000030C101010101C00E01804040408100059
:10101000101F10101008070004FC04040408F0005E
:10102000101F11111710080004FC0404C404180058
:10103000101F11111710080004FC0400C00000006C
:10104000030C1010101C0000E01804044478400049
:10105000101F100000101F1004FC84808084FC040A
:101060000010101F10100000000404FC0404000015
:10107000000010101F10100003010101FE0000000D
:10108000101F11031418100004FC0480641C0400D9
:10109000101F10000000000004FC040404040C00F5
:1010A000101F1F001F1F100004FC807C80FC040028
:1010B000101F0C0300101F1004FC0400E018FC00BB
:1010C0000708101010080700F00804040408F000D6
:1010D000101F101010100F0004FC8480808000008E
:1010E0000708101010080700F00814140C0AF2008A
:1010F000101F111111110E0004FC0400C0300C046B
:10110000000E111010101C00001C048484443800D0
:101110001810101F10101800000004FC040000003C
:10112000101F100000101F1000F804040404F80041
:10113000101E110000131C100000E01C7080000045
:10114000101F001F001F100000C07C807CC000002A
:101150001018160101161810040C34C0C0340C0409
:10116000101C1300131C1000000004FC04000000FD
:1011700008101010131C1000041C648404041800D0
:101180000000007F40404000000000FE020202001C
:1011900000201C030000000000000080601C030011
:1011A000004040407F00000000020202FE000000FC
:1011B000000020404020000000000000000000006F
:1011C0000000000000000000010101010101010117
:1011D0000048700000000000000000000000000057
:1011E00000000101010000000098242448FC0400D4
:1011F000080F00010100000000FC88040488700052
:10120000000000010101000000708804040488004F
:101210000000010101090F0000F804040408FC04A7
:10122000000001010101000000F824242424E8004A
:101230000001010709090400000404FC0404000083
:10124000000001010101010000D6292929C9060079
:10125000080F00010101000004FC84000004FC04EC
:101260000001191900000000000404FC040400003F
:1012700000000001191900000003010101FE000037
:10128000080F00000101010004FC2460940C04001C
:101290000008081F00000000000404FC0404000013
:1012A000010101010101010004FC0400FC0400FC37
:1012B000010100010101000004FC84000004FC04A1
:1012C000000001010101000000F804040404F8001A
:1012D000010100010100000001FF89040488700081
:1012E0000000000101000100007088040489FF0172
:1012F00001010100010101000404FC8404008000DC
:10130000000001010101010000CC242424249800E4
:101310000001010701010000000000F804040800BA
:10132000010100000001010000F804040408FC04AD
:10133000010101000101010000C0300C30C00000BB
:10134000010100010100010180700C30E01C60808F
:10135000000101010001010000048C70748C040084
:1013600001010100000101010081611E186080007F
:10137000000101010101010000840C3444840C00CF
:1013800000000000003F404000000000807C02029E
:1013900000000000FF00000000000000FF0000004F
:1013A00040403F000000000002027C80000000007E
:1013B000004080404020400000000000000000008D
:1013C000000C0C0101010000007088040404880076
:1013D00000000C1F1F0C000000386CC4C46C3800E7
:1013E00000001F11111111FF0000F810101010FE65
:1013F000111111111F00000011111111F9010F003D
:1014000000007F40414141410106F8020202020210
:101410005F41414141414000FE0202221A020200A6
:10142000080640310022262A20207E8001027C000E
:10143000B262222A26232000007F00007E010700DE
:101440000806403100007F4920207E80027E424213
:10145000494949497F0000007E427E42427E0200A7
:1014600000003F2424243FA4020CF1012132AAA44D
:1014700064243F2424242000A4A4AA3201010100F2
:1014800008064031007F494920207E8022120AFE52
:10149000494949497F0000000202FE0A1222020067
:1014A00000000000000000FA000000C000C000289A
:1014B000FE28FE2800325EF24C0066681666001CAC
:1014C000F2B24C0000C0000000007C8200000082EC
:1014D0007C0000387C380000107C10000000000602
:1014E000000010101010000002000000020C30C0BC
:1014F000007C82827C0042FE020000468A926200EA
:101500004492926C001C64FE0400F292928C007C67
:1015100092924C00C08E90E0006C92926C006492AB
:10152000927C0000240000000224000000102844E7
:10153000820028282828008244281000408A9060D1
:1015400000708E927E007E88887E00FE92926C00F3
:101550007C82824400FE82827C00FE92928200FEA7
:10156000909080007C82925C00FE1010FE0082FE53
:101570008200000C0202FC00FE1028C600FE0202DF
:101580000200FE6060FE00FE6018FE00FE8282FE29
:1015900000FE909060007C8A867E00FE9894620037
:1015A0006492924C0080FE808000FC0202FC00F0FD
:1015B0000E0EF000FE0C0CFE00C63838C6C0201E11
:1015C00020C000869AB2C20000FE8200C0300C0229
:1015D00000000082FE000040804000000202020283
:1015E0000000C0000000041A1A1E00FE12120C00B7
:1015F0000C121212000C1212FE000C1A1A08001023
:101600003E5010000815151E00FE101E0000002E92
:1016100000000001012E0000FE0814120002FE026C
:1016200000001E101E1E001E10100E000C12120CC8
:10163000001F12120C000C12121F001E08101000C6
:101640000A1A161400103E1200001C02021E001896
:1016500006061818061C061800120C0C12001805B5
:10166000051E0012161A120010EE8200C0300C0285
:10167000000082EE10000040804080008C160008C0
:0C16800000000020600600006C01000863
:0400000508000131BD
:00000001FF
